:020000040001F9
:10D00000083A0020F5D001000FD1010011D1010034
:10D010000000000000000000000000000000000010
:10D0200000000000000000000000000013D101001B
:10D03000000000000000000015D1010017D1010020
:10D0400019D1010019D10100CDD5010019D101007C
:10D0500019D1010000000000C5D1010019D1010063
:10D0600019D1010019D1010019D1010019D1010014
:10D0700019D1010019D1010019D1010019D1010004
:10D0800019D10100F5D4010019D1010019D1010015
:10D090001DD5010019D1010025D5010019D10100CC
:10D0A00019D1010019D101000000000000000000AA
:10D0B0000000000000000000000000000000000070
:10D0C0000348854600F06CF800480047D9F6010097
:10D0D000083A0020401E00BF00BF00BF00BF00BFD5
:10D0E00000BF00BF00BF00BF00BF00BF00BFF1D145
:10D0F000704700000321094802680A43026008489B
:10D1000002680A4302600748804707480047FEE775
:10D11000FEE7FEE7FEE7FEE7FEE70000240500402D
:10D120005405004095D50100C1D0010030B50B4633
:10D13000014600202022012409E00D46D5409D42F1
:10D1400005D31D469540491B254695404019154677
:10D15000521E002DF1DC30BD03460B439B0703D06C
:10D1600009E008C9121F08C0042AFAD203E00B78AC
:10D170000370401C491C521EF9D27047D2B201E024
:10D180000270401C491EFBD270470022F6E710B522
:10D1900013460A4604461946FFF7F0FF204610BD25
:10D1A000064C0125064E05E0E36807CC2B430C3CFA
:10D1B00098471034B442F7D3FFF786FFE80F020018
:10D1C00008100200F0B587B0002600200690FF206E
:10D1D000013005900125002416E0059802F0DEFDDF
:10D1E00000280BD000BF564840682840002805D0D2
:10D1F000059802F0CBFD3046284306466D000598A1
:10D20000001D80B20590641C042CE6D3FF207D3005
:10D2100002F0C4FD00280AD0FF207D3002F0B6FDE8
:10D220000120C007064300BF46480069069030074A
:10D23000000F00282AD00125002425E02846304090
:10D2400000281FD000BF4048512109014018A1000B
:10D2500040581F2109020840000A049000BF3A48C4
:10D26000512109014018A100405803210904084038
:10D27000000C0390204601F04BFC074603990498EC
:10D28000B84700BF6D00641C042CD7D3F00FC00753
:10D29000002852D000244EE02C480057401C0028A3
:10D2A00048D02A48005D0490C0210498884307466E
:10D2B000384601F071FC029001F02AFC03900398BB
:10D2C000002836D0C0210498084080110290012027
:10D2D000B840054600BF0520000707210902401895
:10D2E000B9004058032109040840000C0190069839
:10D2F0002840002802D00198022806D0069828402D
:10D30000002815D10198032812D1029803280BD1C7
:10D310000198022801D1032000E002200090384645
:10D32000009902F002FD00BF3846039A0299904727
:10D3300000BF00BF641C042CAED307B0F0BD0000DA
:10D34000006300400005005000600040C431002030
:10D35000C206D20E01219140014A116070470000BF
:10D3600080E200E0C206D20E01219140014A116024
:10D370007047000000E100E0C206D20E012191409A
:10D38000014A11607047000000E200E010B500287B
:10D3900019DA1A4A03071B0F083B9B089B00D25857
:10D3A0008307DC0EFF23A3409A438B071B0E8407E1
:10D3B000E40EA3401A43114B0407240F083CA408B1
:10D3C000A4001A5118E00E4A03231B02D218830846
:10D3D0009B00D2588307DC0EFF23A3409A438B07A0
:10D3E0001B0E8407E40EA3401A43054B03242402BA
:10D3F0001B198408A4001A5110BD00001CED00E0A8
:10D4000000E100E010B5002819DA1A4A03071B0FE3
:10D41000083B9B089B00D2588307DC0EFF23A340E8
:10D420009A438B071B0E8407E40EA3401A43114B4B
:10D430000407240F083CA408A4001A5118E00E4A5F
:10D4400003231B02D21883089B00D2588307DC0EEB
:10D45000FF23A3409A438B071B0E8407E40EA340CF
:10D460001A43054B032424021B198408A4001A51F3
:10D4700010BD00001CED00E000E100E010B5002848
:10D4800019DA1A4A03071B0F083B9B089B00D25866
:10D490008307DC0EFF23A3409A438B071B0E8407F0
:10D4A000E40EA3401A43114B0407240F083CA408C0
:10D4B000A4001A5118E00E4A03231B02D218830855
:10D4C0009B00D2588307DC0EFF23A3409A438B07AF
:10D4D0001B0E8407E40EA3401A43054B03242402C9
:10D4E0001B198408A4001A5110BD00001CED00E0B7
:10D4F00000E100E010B5002007490860002106485F
:10D5000041608160C1600020034940390860486083
:10D5100003F068FB10BD00004011014010B503F09E
:10D520006BF910BD70B50C480068002811D00A488E
:10D5300000688047044600BF2546002D07D000BF85
:10D5400006A2FF214131284600F048FA00BF00BF83
:10D5500001E001F04FFE70BD842800205254455C6C
:10D560006E52465F536F66744465766963655C6EA0
:10D57000524635313432325F787841435C736F669E
:10D58000746465766963655F68616E646C65722E4C
:10D590006300000010B501F0FDFE002805D007482B
:10D5A00007494860C8130749886101F0D7FE002881
:10D5B00002D001200449886010BD0000DFFF07C0D1
:10D5C00000050040006C0040000600401FB501212E
:10D5D00049024A4802F01CFC00282FD0FF212531C7
:10D5E000464802F0F7FB002828D0FF2125314348A8
:10D5F00002F0F8FB81218900404802F0FFFB40481F
:10D60000407D002803D104213C4802F00DFC02209B
:10D6100069460870394802F0D3FB03903848C17C52
:10D62000684601723648C068019000203449C874C9
:10D630000846016842686846904725E004212F4863
:10D6400002F0E6FB00281FD0FF2109312B4802F031
:10D65000C1FB002818D002F077FF2948C07C284978
:10D66000097D884210D12648407D002803D104213D
:10D67000224802F0D9FB81218900204802F0BEFB3C
:10D680001F49087D02F07CFFFF211D311B4802F07D
:10D69000A1FB002815D01A48807C1949098A8842C4
:10D6A00002DD03F0EFFA0CE0FF211D31134802F018
:10D6B00099FB1348807C002803D01149887C03F033
:10D6C000FDFAFF2145310D4802F084FB002814D0FB
:10D6D000FF214531094802F085FB0948407D0028BB
:10D6E00003D00021054802F09FFB0548C07C0028BC
:10D6F00003D00349087D02F043FF1FBD0020004016
:10D70000CC3100200FB410B503A9044B044A029891
:10D7100000F03AF810BC08BC04B01847E3F0010070
:10D720007C2800200FB410B504A9074B02AA039867
:10D7300000F02AF8044602A9002000F00BF9204668
:10D7400010BC08BC04B0184755D9010030B4744669
:10D75000641E2578641CAB4204D3635D5B00E31850
:10D7600030BC18471D46F8E702E008C8121F08C180
:10D77000002AFAD170477047002001E001C1121F52
:10D78000002AFBD170470000FFB58DB00F4605465B
:10D79000002606E025280AD0109A0F9990476D1CA4
:10D7A000761C28780028F5D1304611B0F0BD002451
:10D7B0000121674A009400E004436D1C2B78084661
:10D7C000203B98401042F7D128782E2815D104200C
:10D7D000044368786D1C2A280AD101CF6D1C009083
:10D7E0000BE000990A225143303940186D1C00901B
:10D7F0002878014630390929F3D92878692843D097
:10D8000006DC0028D0D063280BD0642804D13BE08C
:10D8100073280FD075284CD0109A0F999047761C1A
:10D8200094E03878694608720020487202A8019096
:10D83000012003E0386801900020C0433F1D6107CC
:10D840000CD5002400E0641C00998C420FDA84425D
:10D85000F9DB0199095D0029F5D108E0002400E019
:10D86000641C8442FCDB0199095D0029F8D136195A
:10D8700007E0019801990078491C0191109A0F99CD
:10D880009047641EF5D261E00A20019001CF002884
:10D8900002DA40422D2102E0210504D52B216A46FF
:10D8A0001172012103E0E10701D02021F7E70C917B
:10D8B00004E00A20019001CF00210C910BA90B91EB
:10D8C00008E00199FFF732FC0A460B993032491EF5
:10D8D0000B910A700028F4D10B9803A9081A203084
:10D8E0000190600701D5009801E0012000900199A6
:10D8F000884203DD01460198081A00E00020002458
:10D90000009006E002A8109A005D0F999047641CF1
:10D91000761C0C988442F5DB04E0109A30200F99B5
:10D920009047761C0099481E00900029F5DC08E01D
:10D930000B980B990078491C0B91109A0F999047FE
:10D94000761C0199481E01900029F1DC6D1C28E726
:10D95000092801000A68531C0B601070704710B54D
:10D9600001220221002000F06FFD044600BF002CC0
:10D9700003D0072C01D0204610BD00BF0722022192
:10D98000012000F061FD044600BF002C03D0072CED
:10D9900001D02046F0E700BF0A220021084600F02F
:10D9A00053FD044600BF002C03D0072C01D02046B5
:10D9B000E2E700BF0020DFE7014600BF064A5068EB
:10D9C0000122D2058243044B9A600122D205024013
:10D9D000DA6000BF7047000000050050F8B504464B
:10D9E0000D4616460C2000F035FD012100916846D9
:10D9F000007806480460064805600648066072B66E
:10DA000000BF684600780028FBD1F8BD4C280020F4
:10DA1000502800205428002070B504460D462046AA
:10DA200001F051FB002805D02946204601F03CFBBF
:10DA3000002070BD0520FCE70346002901D10E201F
:10DA40007047002A03D0501E1040002801D0092042
:10DA5000F6E71960501E988000209860D86000BFDB
:10DA6000EEE770B504460D46204601F02CFBA18878
:10DA7000884205D82946204601F02AFB002070BDC7
:10DA80000420FCE770B505460E461446314628468C
:10DA900002F076FE2060002070BD10B5044602F052
:10DAA000F7FC2060002010BD10B503460C460D4861
:10DAB0000068002801D1082010BD002A01D10720EC
:10DAC000FAE7002B01D10720F6E71868007C002850
:10DAD00001D00820F0E71968002008744C744A61EE
:10DAE00000BFE9E75C280020FFB581B00E46144670
:10DAF0001F4620468107890F002901D1012100E03E
:10DB00000021002902D1072005B0F0BD002C04D16E
:10DB100000201C4908600720F6E702F0E9FC1A48DB
:10DB2000076003201949087016480460183400255E
:10DB30000CE0E900134A1268881800210170417056
:10DB400086704460182171430C196D1C032DF0DBA5
:10DB500000200F4908600F4908700F490870142011
:10DB6000FFF7F6FB03211420FFF788FC1420FFF7D2
:10DB7000F9FB019802F092FC02F08AFC0749086068
:10DB80000020C1E75C2800207428002058280020CD
:10DB900060280020702800207128002064280020C0
:10DBA000FEB504460D461746264612480068002872
:10DBB00001D10820FEBD002C01D10820FAE7052D77
:10DBC00001D20720F6E77069002801D10820F1E7AB
:10DBD000707C012801D1284600E00020029003F06B
:10DBE0006BF9009701902A463146029B02F0A4FE91
:10DBF000E0E700005C28002070B5044625460B488D
:10DC00000068002801D1082070BD002C02D068698E
:10DC1000002801D10820F7E70020287403F04CF910
:10DC20000646294602F0BEFFEEE700005C28002011
:10DC300070B504460A4801F041FA094989888842CA
:10DC400009D10121074801F059FF0546002D01D0F7
:10DC5000052070BD00BF21460148FFF7DDFEF8E753
:10DC6000E43100204A280020FFB589B004460D4663
:10DC7000174627480760002D02D107200DB0F0BDE0
:10DC8000A88882B223482968FFF7D6FE0646002EF0
:10DC900001D03046F2E7A88982B21F48A968FFF791
:10DCA000CBFE0646002E01D03046E7E720221B4976
:10DCB00001A8FFF751FAA06807902079002801D049
:10DCC000012000E000206946087608A90C98087039
:10DCD0006079002801D00E2000E0002069464876D7
:10DCE000E0780390A078049020780290607801900A
:10DCF0000B4901A801F0C2FE0646002E01D03046B5
:10DD0000BCE701F06BFF0121064801F0F7FEB5E723
:10DD100044280020E4310020F4310020C80F020024
:10DD2000850D02004A28002070B50446074804709B
:10DD3000012101F061FF0546112D04D1214604485F
:10DD4000FFF78FFE0546284670BD000049280020D9
:10DD5000F431002070B50446206801F0DAFF206835
:10DD600002F006F80021606801F0C6FFA0691449BE
:10DD7000052212028918486200BF607D217D02469B
:10DD80000A430F4B05252D025B19DA6600BF0C48CC
:10DD90006268216802F04BF8207D01280ED1002135
:10DDA000A06801F0A9FFE06801F0B3FFE06801F0AE
:10DDB000DFFF0348A268E16802F017F870BD0000B9
:10DDC0000020004038B54348007800287ED0424803
:10DDD0000078002804D001283AD0022878D176E0D3
:10DDE0003EA0FFF78FFC00223D493E480068FFF748
:10DDF000D7FE044600BF2546002D07D000BF3AA23B
:10DE0000374963312846FFF7E9FD00BF00BF3A48B4
:10DE1000FFF743FE044600BF2546002D07D000BF94
:10DE200031A2BD2189002846FFF7D8FD00BF00BF01
:10DE300031480068314908600020314908702E4897
:10DE4000016830A0FFF75EFC0120234908703FE025
:10DE50002B4801782CA0FFF755FC2D48FFF71DFE3D
:10DE6000044600BF2546002D07D000BF1EA21C4956
:10DE700073312846FFF7B2FD00BF00BF6A461F4856
:10DE8000016823480068FFF7FDFD044600BF2546F2
:10DE9000002D07D000BF14A2114977312846FFF7A3
:10DEA0009DFD00BF00BF17A00099FFF72BFC144891
:10DEB00002780078401C124B009918709000154AA7
:10DEC0001150134800680D49086001E001E000BFEF
:10DED00000BF38BD0028002001280020490A0000AA
:10DEE0008F020000600F02002E2E5C2E2E5C2E2E64
:10DEF0005C6D61696E2E63000828002010280020E8
:10DF00000228002025640A004325642C200000001C
:10DF10000C2800202829002070B504460D4629460B
:10DF2000204601F057FC70BD70B504460D46002C2C
:10DF300001D0002D01D10E2070BD084800780028C6
:10DF400001D10820F8E706480068022801D1062020
:10DF5000F2E72946204602F073FAEDE74028002058
:10DF60003C28002000200449086001200349087073
:10DF700000200349086070473C280020402800200A
:10DF80003828002070B505460C46002D01D0002C25
:10DF900000D170BD19480078002800D1F9E7208829
:10DFA000302817D004DC102807D0112821D108E030
:10DFB000322814D033281CD116E0A1887420415394
:10DFC00018E07C212846FFF7E0F80021C9437420BF
:10DFD00041530FE0211D284602F0FAF80AE0211D06
:10DFE000284601F0EDFF05E0211D284602F076F8F5
:10DFF00000E000BF00BF00BFCBE7000040280020CA
:10E00000F8B504460F46002C01D10E20F8BD1C487F
:10E010000078002801D10820F8E71A480068002895
:10E0200001D10820F2E77920005D002801D01120FD
:10E03000ECE70020144908607420075300217A207F
:10E04000015578200155005D3A2148430519782093
:10E05000005DC0000D494018018829804088688013
:10E060007421085B2A46012190DF0646002E01D06C
:10E070003046CBE70121792001550020C6E700009A
:10E08000402800203C28002038280020EC300020C8
:10E0900010B50446204601F0F7FE204600F052F984
:10E0A00021460448FFF76EFF2146034800F070F850
:10E0B00010BD0000AC2800209C280020F8B50746C1
:10E0C0000C462078012806D0022805D0032814D059
:10E0D000042823D11FE021E0384600F08BF80546E4
:10E0E00000BF2E46002E06D000BF0DA2D62130461E
:10E0F000FFF774FC00BF00BF10E0002607E000BF80
:10E100006168885DFFF710FE0028F9D1761C207A3F
:10E11000B042F4D802E002F05BFA00BF00BFF8BDE5
:10E120002E2E5C2E2E5C2E2E5C6D61696E2E630091
:10E1300070B586B004460D46124B0FCB01AE0FC62C
:10E14000002C01D0002D02D10E2006B070BD21465A
:10E1500001A863DF0646002E01D03046F5E721789E
:10E16000684681750121818207480460881E6080AD
:10E170002868E0600020A0802081044905A8FFF7FE
:10E18000D3FEE2E7800F0200342800203DED0100BD
:10E190003EB504460D46002C01D0002D00D13EBDF9
:10E1A00060881349884204D06088A988884200D0DA
:10E1B000F5E72888112806D0382815D129462046A9
:10E1C00001F0EAFF10E0A888618888420BD1E0687E
:10E1D000002808D0042069460870401F608020464F
:10E1E000E268904700BF00BF00BF00BFD7E7000054
:10E1F000FFFF000010B50446002C01D10E2010BD19
:10E2000060880749884202D0E088002801D10820B0
:10E21000F5E7E1886088012200F052FCEFE700009A
:10E22000FFFF0000FEB504460E461546002C01D146
:10E230000E20FEBD142D01DD0720FAE76088094994
:10E24000884201D10820F4E7074A07CA6B4607C392
:10E25000218968464180C58002966088694697DFBB
:10E26000E7E70000FFFF00009C0F0200F8B500BFC9
:10E27000002348221D49082002F024FA054600BF69
:10E280002E46002E07D000BF19A2FF21BB31304619
:10E29000FFF7A4FB00BF00BF00BF002000900021DB
:10E2A000684641700221017060DF044600BF2546C8
:10E2B000002D07D000BF0EA2FF21C9312846FFF76D
:10E2C0008DFB00BF00BF0E4802F0F0F9044600BF0E
:10E2D0002546002D07D000BF05A2FF21CD312846DD
:10E2E000FFF77CFB00BF00BFF8BD0000EC2A002058
:10E2F0002E2E5C2E2E5C2E2E5C6D61696E2E6300C0
:10E3000091E0010070B505460C4600260B480560FB
:10E31000002C09D0204602F009FA064600BF002E64
:10E3200001D0304670BD00BF05480068002802D10A
:10E33000FFF715FB06463046F4E7000028280020CA
:10E340002C28002070B505462888102802D01128F6
:10E3500032D118E01A48006800280ED100F092FC73
:10E36000044600BF002C07D016480068002803D0E0
:10E37000204614490968884700BF11480068401CBE
:10E380000F49086019E00E480068401E0C490860FB
:10E390000846006800280ED1FFF7E1FA044600BFE6
:10E3A000002C07D007480068002803D02046054904
:10E3B0000968884700BF00E000BF00BF70BD0000D3
:10E3C0002C2800202828002010B5032000F040FB56
:10E3D000044600BF002C03D0062C01D0204610BDFF
:10E3E00000BF0020FBE702460020087070470000D5
:10E3F00070B50546042D04D00A2D17D102F014F98A
:10E4000015E00C494888132176DF0446082C0CD00F
:10E4100000BF2646002E07D000BF07A2FF21E13132
:10E420003046FFF7DBFA00BF00BF00E000BF00BFCF
:10E4300070BD00009C2800202E2E5C2E2E5C2E2EFF
:10E440005C6D61696E2E630010B5034600200720E5
:10E4500010BD000070B50446002506480078C007CE
:10E46000C00F002803D0204600F03EF8054628469D
:10E4700070BD000020280020F8B504460E4617465F
:10E4800000251248066012480460E007C00F00280B
:10E490000AD000BF072040050E4988600020C860F0
:10E4A00000BF072040058861002D05D10A4A0021E0
:10E4B0000A48FFF7F9FA0546002D05D1084A01215F
:10E4C0000848FFF7F1FA05462846F8BD1C28002049
:10E4D000202800200005005011F50100780F0200EF
:10E4E000B9D901007C0F0200F8B5044600250026CA
:10E4F0002300FFF72BF9180D1E1F68B1F9F8F7F686
:10E50000F5F4F3F2F1F0EFEEEDECEBEAE9E8E7E633
:10E5100000BFF748016807204005884307214905E7
:10E520000840F44988600020C86000BFF2480470C9
:10E5300080E200BF00BFEE480168032080058843E9
:10E54000072149050840EB4988600020C86000BFEA
:10E55000084640680721490548400121490508400F
:10E5600000280FD000BF0846E24988600020C8603C
:10E5700000BF022C02D1E120C00001E07D2040015B
:10E5800006460EE000BF01204005DA49C8600020C1
:10E59000886000BF022C01D1C82001E0FF2091302B
:10E5A0000646D548047064213046FEF7BFFDD349C6
:10E5B00009684843074600223946D1480068FFF7FA
:10E5C000EFFA054636E200BFC9480168032080051E
:10E5D0008843072149050840C64988600020C86073
:10E5E00000BF084640680721490548400121490508
:10E5F000084000280FD000BF0846BE4988600020B0
:10E60000C86000BF032C02D11920400101E07D2029
:10E61000400106460EE000BF01204005B549C86034
:10E620000020886000BF032C01D1C82001E0FF203A
:10E6300091300646B048047064213046FEF776FDFE
:10E64000AE4909684843074600223946AC4800688D
:10E65000FFF7A6FA0546EDE100BFA54801680320D3
:10E6600080058843072149050840A24988600020A9
:10E67000C86000BF0846406807214905484001219D
:10E680004905084000280FD000BF08469949886016
:10E690000020C86000BF042C02D17D20400101E0B1
:10E6A0007D204001064623E000BF0120400591493E
:10E6B000C8600020886000BF042C16D1FF20913074
:10E6C00015E0B6E1AAE1A8E195E182E16FE163E13D
:10E6D00027E125E123E121E11FE113E1F0E0D9E0A9
:10E6E000C0E0A9E090E05DE014E0FF209130064634
:10E6F0008148047064213046FEF718FD7F4909689F
:10E7000048430746002239467D480068FFF748FA2B
:10E7100005468FE100BF76480168032080058843E5
:10E72000072149050840734988600020C86000BF80
:10E73000084640680721490548400121490508402D
:10E7400000280ED000BF08466A4988600020C860D3
:10E7500000BF052C01D1C82001E07D204001064604
:10E760000EE000BF012040056249C86000208860BB
:10E7700000BF052C01D1C82001E0FF2091300646E2
:10E780005D48047064213046FEF7D0FC5B4909689F
:10E79000484307460022394659480068FFF700FA07
:10E7A000054647E100BF52480168032080058843C1
:10E7B0000721490508404F4988600020C86000BF14
:10E7C000084640680721490548400121490508409D
:10E7D000002806D000BF0846464988600020C8606F
:10E7E00007E000BF012040054249C8600020886062
:10E7F00000BF414804704148002201684048006859
:10E80000FFF7CEF9054615E100BF3948016803203E
:10E810008005884307214905084036498860002063
:10E82000C86000BF00BF01204005C86000208860AC
:10E8300000BF31480470FDE000BF2E494868012147
:10E84000890581432B4A9160012189050140D160EE
:10E8500000BF2A480022016829480068FFF7A0F994
:10E860000546E7E000BF2349486801218905814347
:10E87000204A9160012189050140D16000BF1F48F5
:10E8800000688200811800221D480068FFF788F99F
:10E890000546CFE000BF174948680121890581433B
:10E8A000144A9160012189050140D16000BF1348DD
:10E8B0000022016812480068FFF772F90546B9E0C6
:10E8C00000BF0C494868012189058143094A9160CC
:10E8D000012189050140D16000BF0848006882001D
:10E8E0008118002206480068FFF75AF90546A1E0A2
:10E8F0002428002000050050182800201C28002093
:10E90000780F020000BF072040054C49C860002076
:10E91000886000BF4A4804708CE000BF00BF00BFA1
:10E9200000BF48480068FFF767F905461120061B3D
:10E93000002E23D0002D21D10120C00542490860BE
:10E94000012E10D9C821714308466421FEF7EEFB61
:10E950003E4909684843074600223946394800685D
:10E96000FFF71EF9054600BF374800680721490533
:10E9700008403249C860002088600CE000BF32487F
:10E9800000680721490508402C4988600020C860BC
:10E9900000BF2D4908604DE000BF07204005274912
:10E9A00088600020C86000BF2548047042E000BFB6
:10E9B00003208005214988600020C86000BF00BF97
:10E9C00001204005C8600020886000BF1C4804701A
:10E9D00030E000BF05204005184988600020C8606D
:10E9E00000BF00BF01208005C8600020886000BF14
:10E9F000134804701EE000BF0120C0050F49886065
:10EA00000020C86000BF00BF03204005C860002090
:10EA1000886000BF0A4804700CE000BF00BF0720F8
:10EA200040050649C8600020886000BF04480470A3
:10EA300000E000BF00BF2846F8BD00000005005000
:10EA4000182800207C0F0200242800201C28002009
:10EA5000014606207047000038B5124A12490120CD
:10EA6000FFF70AFD044600BF2546002D06D000BF73
:10EA70000EA212492846FEF7B1FF00BF00BF69464B
:10EA80000020FFF73FFC044600BF2546002D07D0BD
:10EA900000BF06A20949C91C2846FEF79FFF00BF18
:10EAA00000BF38BDF1E30100CD0C00002E2E5C2E1E
:10EAB0002E5C2E2E5C6D61696E2E63001A020000C2
:10EAC0007FB506460C46154668460573002141731E
:10EAD000064A07CA6B4607C36846448003A80290EB
:10EAE0006946304697DF04B070BD0000900F020009
:10EAF0000021C9438200054B9950042804DB0B46D2
:10EB0000011F024A403253547047000084310020F4
:10EB100001468800014A10587047000084310020E7
:10EB2000F7B585B00B460020C0430490002A01D001
:10EB3000002000E004200390002A01D0042000E01F
:10EB40000820029003991EE08800124C2058401CB7
:10EB5000002817D10846059C0093019246B20D4D3E
:10EB600020352E5585000B4E009B7351019A002ACB
:10EB700004D166B2051F074F40377E5500BF48B22B
:10EB8000049003E0491C02988142DDD300BF049841
:10EB900008B0F0BD8431002001460148405670475E
:10EBA000A431002038B504467820005D3A2148435E
:10EBB00005197720005D002812D07722125D521EC1
:10EBC000D1B27822125D3A235A4315190C224A43D6
:10EBD0002B460A33D0180289521C6B461A8002E079
:10EBE000E888694608802889694648807421085B5E
:10EBF000694692DF38BD0000FEB51F480068002856
:10EC000036D01D480068056801F042FC01901B48A1
:10EC100004682146019801F0B3FDC61C184800782D
:10EC2000002801D101F046FCAE4201D2284600E0A6
:10EC3000304604192402240A204601F023FC01F086
:10EC400027FC00900199009801F09AFDC71C20460E
:10EC5000019901F095FD874209D901F019FC074699
:10EC600001F010FC2F20FEF735FA02F005F801E064
:10EC700001F03EFCFEBD000060280020642800205A
:10EC80007828002010B5012200210846FFF7DCFBA0
:10EC9000044600BF002C03D0072C01D0204610BD35
:10ECA00000BF072202210120FFF7CEFB044600BF70
:10ECB000002C03D0072C01D02046F0E700BF04222F
:10ECC00002210020FFF7C0FB044600BF002C03D048
:10ECD000072C01D02046E2E700BF0020DFE700005C
:10ECE00010B514484068C105C90D002920D00A4656
:10ECF000103A50B200280DDA0E4B1C330407240FD3
:10ED0000083CA408A4001B598407E40EE3401B063A
:10ED10009B0F0BE0084B032424021B198408A4005A
:10ED20001B598407E40EE3401B069B0FD8B210BDAD
:10ED30000420FCE700ED00E000E100E03EB5044601
:10ED4000207800285BD1A088012858D1A0792C49CF
:10ED500009680978884252D100254CE00C202946E8
:10ED6000414320460E30405A022818D10C20294633
:10ED7000414320460E30081800892149096808815E
:10ED80001F480068C068002834D001206946087018
:10ED90001B480068C2681A48006890472AE00C20A7
:10EDA0002946414320460E30405A032822D10C20E8
:10EDB0002946414320460E30081800891049096849
:10EDC00088800C202946414320460E30081840898F
:10EDD0000B490968C8800A480068C068002809D043
:10EDE00002206946087006480068C2680448006846
:10EDF000904700BF6D1C207AA842AFD800BF3EBD2F
:10EE000034280020F0B585B004460F46002001905C
:10EE10007820005D3A21484305197720005D0C21D8
:10EE2000484329460A31401802907720005D401C73
:10EE30002979884207D103AB00222046029900F0CD
:10EE400062FA01902AE07720065D22E02879401ED0
:10EE5000B04202D10020009006E0701C0C21484313
:10EE600029460A314018009003AB2046009A0299C7
:10EE700000F049FA002802D0012001900CE000982F
:10EE800002907720005D401CC1B277200155701CB4
:10EE9000C6B22879B042D9DC00BF00BF0198002873
:10EEA00004D101203870002005B0F0BD002038707A
:10EEB0007421085B03A993DFF6E70000F8B5044668
:10EEC0000D467820005D3A2148430719384601F085
:10EED00097FA0646002E3CD01E480068022838D219
:10EEE0007420015B1B480068442250431A4A801872
:10EEF0004180002D12D00021164800684422504362
:10EF0000154A11541349096844225143124A891879
:10EF1000081D3A223946FEF71FF906E002210D4886
:10EF20000068442250430C4A11540A4800684421A6
:10EF3000484309494018066406480068401C0549D2
:10EF400008600846006805490968884201D101F057
:10EF5000ABF9F8BD38280020FC3000203C28002008
:10EF6000F8B504460D467820005D3A21484307195C
:10EF7000384601F045FA0646002E2ED017480068A4
:10EF800002282AD27420015B1448006844225043AE
:10EF9000134A8018418001211048006844225043E0
:10EFA0000F4A11540D480068442148431146401847
:10EFB00045600A48006844214843114640180664E9
:10EFC00006480068401C0549086008460068054975
:10EFD0000968884201D101F067F9F8BD382800209E
:10EFE000FC3000203C280020014614480078144AD8
:10EFF000127890421DD011480078401C0F4A1070C2
:10F0000010460078022801D1002010700B480078CB
:10F0100080000C4A105808600B4A08681268801873
:10F02000094A1060104600680002000A10600120C2
:10F0300070470020086000BFFAE700007028002039
:10F04000712800206828002064280020F0B50346BD
:10F05000002420E0134E306806689E4203D90668FB
:10F06000F61A06601BE006689B1B0668341900262A
:10F0700006600C4E35680B4FC6693E60C668002EB0
:10F0800008D00E193602360A4660C66886601668D1
:10F09000C661156000BF034800680028DAD100BFD0
:10F0A000F0BD000060280020826883881A40036851
:10F0B0009A5C0A708268521C8260704701468A68B6
:10F0C000C868801A704701468A68C868801A704705
:10F0D000C26883881A4003689954C268521CC2608F
:10F0E000704770B504460D46E0B2FEF71DFE20469F
:10F0F00070BD00007CB52DA0FEF704FB00F0B4FC51
:10F1000000280ED100F088FC044600BF2546002DE3
:10F1100006D000BF2AA22E492846FEF75FFC00BF9A
:10F1200000BF2C48006801902A48001D006800902C
:10F13000294A01A9102000F0F5FB044600BF25462E
:10F14000002D07D000BF1EA2352109012846FEF779
:10F1500045FC00BF00BF214A6946112000F0E2FBD8
:10F16000044600BF2546002D07D000BF14A2184951
:10F1700009312846FEF732FC00BF00BF03210620FC
:10F18000FEF704F9102000F05BFB0646112000F0AA
:10F1900057FB06460121102000F060FB01211120E1
:10F1A00000F05CFB0EA0FEF7ADFA7CBD4750494F66
:10F1B00054455F494E4954207374617274730A0058
:10F1C0002E2E5C2E2E5C2E2E5C6D61696E2E6300E1
:10F1D00049030000700F0200C5DD01000D0F0200A1
:10F1E0004750494F54455F494E495420656E6473FA
:10F1F0000A000000F8B529480078002800D1F8BDC1
:10F2000027480068002801D1012000E000200546C1
:10F2100024480068002801D1012000E000200646B3
:10F2200000BF002D14D1684651DF0446052C01D1E2
:10F2300001250CE0002C06D000BF1BA26D2120464A
:10F24000FEF7CCFB03E0164900980968884700BF29
:10F25000002E1AD122480088009069462148006893
:10F2600061DF0446052C01D101260DE0002C06D0FB
:10F2700000BF0DA284212046FEF7B0FB04E0194830
:10F28000006808490968884700BF002D02D0002E99
:10F2900000D000E0C5E700BF00BFB0E7882800202D
:10F2A00098280020942800205254455C6E52465FF6
:10F2B000536F66744465766963655C6E524635319A
:10F2C0003432325F787841435C736F66746465767C
:10F2D0006963655F68616E646C65722E630000002F
:10F2E000902800208C28002010B502460B89782039
:10F2F000805C3A24604380180089834201DA01204F
:10F3000010BD0020FCE770B50446002A16D10D8917
:10F310007820005D3A26704300190089854201D1AA
:10F32000002070BD0889401C18807820005D3A25B7
:10F3300068430019008958800120F2E70889401CC1
:10F34000D588A84201D10020EBE70889401C18802D
:10F35000D088401E58800120E3E700000C48008C54
:10F36000C0B2012812D10A48808C0007000F002883
:10F370000CD10748806AF0210840402806D1044893
:10F38000C06A0840002801D1012070470020FCE736
:10F39000C00F00F01948008CC0B201282CD11748CA
:10F3A000808C0007000F002826D11448806AF021C5
:10F3B0000840002806D11148C06A0840002801D141
:10F3C000012070470D48806AF0210840102806D1BE
:10F3D0000A48C06A0840002801D10120F1E7074827
:10F3E000806AF0210840302806D10448C06A0840ED
:10F3F000002801D10120E4E70020E2E7C00F00F07F
:10F40000F3B585B00446002506980930039077E0EF
:10F410000398465D691C0398475C022F01D0032FB7
:10F4200026D1002001901CE0019840004019801C6A
:10F43000039A811802AA022064DF0490049800282D
:10F440000CD1684600892188884207D16846807AB5
:10F45000A178884202D1012007B0F0BD0198401C7C
:10F460000190F10F89194A1001998A42DCD844E0D1
:10F47000042F01D0052F26D1002001901BE0019818
:10F4800080004019801C039A811802AA022064DFC0
:10F490000490049800280BD168460089218888428E
:10F4A00006D16846807AA178884201D10120D3E74D
:10F4B0000198401C0190F117890F89198A10019950
:10F4C0008A42DCD819E0062F01D0072F15D1AA1CDB
:10F4D0000398811802AA102064DF04900498002881
:10F4E0000BD1684600892188884206D16846807A17
:10F4F000A178884201D10120AEE7701C2D1800BF11
:10F500000698007AC008A84282D80020A4E700002C
:10F5100010B5044605480078C007C00F002803D086
:10F5200003480078FEF7E0FF10BD0000202800200F
:10F5300018280020F8B52148006800902048067877
:10F540002EE0F0001F4909684418257824E01820AF
:10F55000684361680F18681CC5B2A078A84200D142
:10F5600000253878022802D0032812D103E07868F9
:10F5700001F0AAF90EE007E01049086800210174C3
:10F580000E4AC169116000BF0C4800680028F3D121
:10F5900000E000BF00BF00BF6078A842D7D100BF25
:10F5A0003046711ECEB20028CBD1044801680098C5
:10F5B000814201D00120F8BD0020FCE76028002036
:10F5C000582800205C280020FEB506463C4800680C
:10F5D00001903C480078009063E00098C0003A49F0
:10F5E0000968451856E0002E02D03446E66924E04A
:10F5F0002978182359436A6850182978491C2970BA
:10F600002978AA78914201D10021297044680178B3
:10F61000012902D1217C002900D03BE08168616092
:10F62000C168A1600169E1604169A1612749097868
:10F63000002901D00021616000BF25496068096888
:10F64000401A0002000A2349884208D22049606813
:10F65000096801F095F8A168401820600FE01C4887
:10F660006168006801F08CF80746A068B84203D9C9
:10F67000A068C01B206001E00020206000BF0020C7
:10F680006060A060012020740020E061204601F04D
:10F69000E5F800BF002EA6D1287869788842A2D16B
:10F6A00000BF0098411EC9B20091002895D10448BE
:10F6B00001680198814201D00120FEBD0020FCE7D5
:10F6C00060280020582800205C280020792800208D
:10F6D00064280020FFFF7F0000BF0023294A0B2180
:10F6E0001846FEF701FA054600BF2E46002E07D049
:10F6F00000BF25A20B2189013046FEF76FF900BF3C
:10F7000000BF00BF01F09EFBFFF7A6F9FEF7AEFDBC
:10F71000FEF728FC044600BF2546002D07D000BF99
:10F7200019A25921C9002846FEF758F900BF00BFA9
:10F7300000F086FB184A00211848FEF7B5F9044688
:10F7400000BF2546002D06D000BF0FA21449284651
:10F75000FEF744F900BF00BF0020124908600120F5
:10F76000114908700D48016810A0FDF7CBFF00F0AB
:10F770002FFF14A0FDF7C6FFFFF7BCFC00BF00F091
:10F78000E1FDFCE7342D00202E2E5C2E2E5C2E2E6B
:10F790005C6D61696E2E630091090200600F0200CA
:10F7A000D1020000082800200028002074696D653F
:10F7B000725F7374696D5F667265715F69643A2028
:10F7C00025750A005363616E2073746172746564F9
:10F7D0000D0A000070B505460C46A21E0121284600
:10F7E00000F0CAFDE007C00F002803D060088000C9
:10F7F000285870BD601E40088000285861088900A4
:10F80000695840184008F4E770B504460D4629468B
:10F810002046FDF7F7FD00BFE106C90E0120884034
:10F820000549086000BF00BFE106C90E01208840FD
:10F830000249086000BF70BD80E200E000E100E026
:10F8400070B504462046FFF7A7F98000FF3001306D
:10F8500085B2284600F094FA70BD0000FEB505465A
:10F860000E46284600F04AFD002820D02846FFF723
:10F8700093F9001F28490F5CBC11032C0CD100BF69
:10F88000264800690121A9400840002801D0032032
:10F8900000E00220019005E0012C01D1022000E0EF
:10F8A000032001902846019900F03FFA32E02846F3
:10F8B00000F030FD00282DD02846FFF76DF90446F2
:10F8C000A000FF30013080B201902046144951223F
:10F8D000120189188200895801221143104A5123CC
:10F8E0001B01D2188300D15000BF019800F04EFADE
:10F8F000002E0ED02846FFF74FF90090FFF708F9C9
:10F900000746002F04D00121A140084600F052FA1A
:10F9100000BF00BFFEBD0000C43100200005005044
:10F9200000600040F7B584B004460E460020039006
:10F93000204600F0D5FC002802D00820039060E0AB
:10F94000F27820460699FFF7EBF80546681C002878
:10F9500054D0B078002810D000BFA1002A4A8918DE
:10F96000096802229143084605210907072212026D
:10F970008918A200885000BF0BE077780020009023
:10F980003B46024601460190204600F08FF900BF39
:10F9900000BFF078002826D037781C485121090193
:10F9A0004018A90040581A4908401849512212012C
:10F9B0008918AA0088501548512109014018A9004A
:10F9C000415820021F22120210403A0403231B0454
:10F9D0001A40104301430D48512212018018AA0019
:10F9E000815000BF0CE0281F0A49085C317889016A
:10F9F000084342B2281F07490A5401E0042003903B
:10FA000000BF039807B0F0BD000700500060004041
:10FA1000FFE0FCFFC431002010B512480079002837
:10FA200001D0082010BD002404E0204600F082FC34
:10FA3000601CC4B2202CF8DB002404E02046FFF751
:10FA400057F8601CC4B2082CF8DB03210620FFF72E
:10FA5000DBFE0120C00700F0ADF901210148017172
:10FA60000020DFE7C431002003480079002801D0DE
:10FA7000012070470020FCE7C431002070B5044627
:10FA80000D461A48807D002801D0082070BD002C4A
:10FA900000D1174C2046FEF75DF914484560134924
:10FAA000206908600846406800280AD0267F11496E
:10FAB000114800F0A8F931460220FFF7A5FE00BF6B
:10FAC00000BF00BF00BF04200B49052212028918A5
:10FAD000086000BF00BF00200449C874887401207A
:10FAE00088750020487500BFD0E70000CC310020A9
:10FAF000A80F02008000020000200040F3B581B092
:10FB000006463448C07C002801D01120FEBD314992
:10FB10000298C8740846C660002008750846407DF3
:10FB2000002801D100F042FD2A48406800284AD14F
:10FB300000BF00BFFF212531274800F04BF90546E3
:10FB4000FF210931244800F045F90746FF214531DE
:10FB5000214800F03FF90446002F03D1002C01D1C9
:10FB6000002DE7D0002D01D1002C00D007E000F0DF
:10FB7000EBFC1848C07C1749097D8842D9DC00BFDE
:10FB8000FF214531144800F02DF9FF21253112489D
:10FB900000F028F900200F49C874002D01D003207F
:10FBA000B4E7002C01D00F20B0E70A48407D0028C0
:10FBB00004D00021084800F037F903E0042106488A
:10FBC00000F032F904E081218900034800F01BF9BC
:10FBD00000209BE7CC3100200020004010B50548F4
:10FBE000407D002804D100F0E1FC01200149487566
:10FBF00010BD0000CC31002070B504460D46002633
:10FC00002848807C002801D0112070BD25488574CB
:10FC10008460002023490882FF211D31224800F022
:10FC2000E1F80821204800F0FFF801F02BF81D480A
:10FC30004068002833D115E000BFFF211D311A486C
:10FC400000F0C8F8002805D11648008AFF210131CC
:10FC50008842F2D11348008AFF210131884201D045
:10FC600001F010F80F48807C0E49098A8842E3DCD5
:10FC70000C48008AFF210131884201D10F260BE098
:10FC800000BFFF211D31084800F0A4F80028F8D07B
:10FC90000C21054800F0C8F800200249887430465D
:10FCA000B3E70000CC31002000200040F0B5059CF7
:10FCB00055000D439E00354326023543069E36040B
:10FCC00035430526360707273F02F6198700F55109
:10FCD000F0BDF0B5059C55000D439E00354326024E
:10FCE0003543069E360435430526360707273F026F
:10FCF000F6198700F551F0BD7CB505460C4600208D
:10FD0000009023460246014601902846FFF7E1FF96
:10FD10007CBD1CB50446002000900346012211461C
:10FD200001902046FFF7D5FF1CBD10B50522120734
:10FD300007231B02D2188300D25803231B049A43C3
:10FD400005231B07072424021B1984001A510522CE
:10FD5000120707231B02D2188300D2580B041A4340
:10FD600005231B07072424021B1984001A5110BD08
:10FD700001218140014A9160704700000005005058
:10FD800001460148081870470060004010B504465D
:10FD90002046FFF7F5FF0021016010BD10B50446B5
:10FDA0002046FFF7EDFF0068012800D110BD0020BC
:10FDB000FCE7000001494860704700000063004014
:10FDC00001460922D2018A1810680922D2018A1834
:10FDD0001060704702465058002801D0012070473B
:10FDE0000020FCE700224250704705231B02C31885
:10FDF000996005231B02C3181A617047032212027F
:10FE00008218916070470322120282185160704775
:10FE1000024603200002101840680840002801D064
:10FE2000012070470020FCE7012242507047052363
:10FE30001B02C318D96005231B02C3185A617047FF
:10FE400038B50A48009069460948FEF771F904463A
:10FE500000BF2546002D06D000BF06A2094928464E
:10FE6000FDF7BCFD00BF00BF38BD0000BDE00100D4
:10FE70009C2800202E2E5C2E2E5C2E2E5C6D61693F
:10FE80006E2E63000E020000F8B505462E1D288870
:10FE9000192851D004DC102827D013287BD153E037
:10FEA0001B2802D01D2876D162E0B01C00903B4890
:10FEB0000099FFF7A5FA002816D0394A3949009869
:10FEC00088DF0446002C0FD1FEF7C4FA044600BFB9
:10FED0002746002F07D000BF33A2FF216C313846E0
:10FEE000FDF77CFD00BF00BF56E00720FEF7B2FA29
:10FEF000044600BF2746002F07D000BF2AA2FF21DB
:10FF00007D313846FDF76AFD00BF00BFA8882A4949
:10FF10004880A9882948FEF773F8044600BF2746A1
:10FF2000002F07D000BF20A2FF2182313846FDF705
:10FF300055FD00BF00BF2FE0B078022802D100F0CD
:10FF400047FB00E000BF27E0A88800231A46852170
:10FF50007FDF044600BF2746002F07D000BF12A254
:10FF6000FF2194313846FDF739FD00BF00BF13E093
:10FF70003088B11C75DF044600BF2746002F07D02C
:10FF800000BF09A2FF219B313846FDF727FD00BFC6
:10FF900000BF01E0FFE700BF00BFF8BD5C0F02003B
:10FFA000440F02004C0F02002E2E5C2E2E5C2E2ED3
:10FFB0005C6D61696E2E63009C280020AC280020D7
:10FFC000F3B587B00546002006907820405D3A21C1
:10FFD000484344190898408800285AD108980830A6
:10FFE000059020790490059800780390039904986F
:10FFF0004018042804DC217903980818207101E0D6
:020000040002F8
:1000000004202071049E0020029019E00A22029828
:1000100042430598801C11180C20704322460A3276
:1000200083180A221846FDF797F800210C20704328
:1000300022460A3280184181761C0298401C0290A8
:100040002079B042E2D8701E0C21484321460A3183
:100050004018019028460199FFF746F9002802D080
:100060002079042802D10120069011E0217977201F
:1000700041552846FEF796FD0746002F08D000217F
:100080007920415539462846FEF76AFF09B0F0BD90
:1000900001E001200690069800281DD0002177205D
:1000A000415505A92846FEF7ADFE0746002F07D0AB
:1000B00000217920415539462846FEF751FFE5E7F2
:1000C0006846007D002806D001212846FEF7F6FE8E
:1000D000284600F0A9F800BF00BFD7E7FEB50446E8
:1000E0000D467820005D3A21484307192E46083610
:1000F0007720005D0C21484339460A3140180290B0
:100100006888002816D100BF0FE006214143B21CC9
:10011000891849881F4A914206D106214143B21CE1
:10012000525A02994A8103E0401C31888142ECD83E
:1001300000BF00BF002001907720005D401C39798E
:10014000884202D10120019016E07720005D401C1A
:10015000C1B27720015501A92046FEF753FE009059
:100160000098002807D000217920015520460099E9
:10017000FEF7F6FEFEBD00BF68460079002806D0F7
:1001800001212046FEF79AFE204600F04DF800BF00
:10019000F0E70000022900003EB504460D46A088A5
:1001A000002814D0A889A188884210D1E0680028CE
:1001B0000DD0032168460170284612300190297C39
:1001C0006846017269462046E268904700BF3EBD1E
:1001D000F8B504460D46688800281DD17820005DDA
:1001E0003A21484307192E46083671883980B0886D
:1001F0007880F288FA80318939812046FEF7D2FC76
:1002000000900098002806D0002179200155204652
:100210000099FEF7A5FE06E000212046FEF74EFEFF
:10022000204600F001F8F8BD70B504467A20005D64
:10023000401CC1B27A200155005D19490968884205
:1002400028D20021772001557820005D401CC1B2E2
:1002500078200155005D3A21484305197820005D5A
:10026000C00010494018018829804088688000201B
:1002700028717421085B2A46012190DF0646002E72
:1002800007D000217920015531462046FEF768FE4F
:1002900070BD02E000217920015500BFF8E70000A1
:1002A0003C280020EC30002010B5002409E0442256
:1002B0006243084BD01844226243D218116C88471D
:1002C000641C054800688442F1D30020034908609B
:1002D00010BD0000FC3000203C2800203828002001
:1002E000014605484056C017401C002801D0012097
:1002F00070470020FCE70000A431002001460448BC
:100300004056042801DB012070470020FCE7000074
:10031000A4310020014606484056002805DB044869
:100320004056042801DA012070470020FCE7000055
:10033000A43100200022D24301490A547047000032
:10034000A431002070B548DF044600BF2546002DCB
:1003500006D000BF03A207492846FDF73FFB00BFB8
:1003600000BF70BD2E2E5C2E2E5C2E2E5C6D616942
:100370006E2E630027020000F7B581B00446039992
:10038000029888423BD2029F029E039D21E000E03A
:10039000761CB0002058B9006158884202D80398F2
:1003A0008642F5D900E06D1EA8002058B9006158BA
:1003B000884202D902988542F5D2AE4209D2B000F5
:1003C00020580090A8002058B1006050A900009863
:1003D0006050AE42DBD3A80020580090B8002058EF
:1003E000A9006050B900009860506A1E204602992A
:1003F000FFF7C2FF691C2046039AFFF7BDFFFFBD50
:100400000246002112E0C8000B4BC0188078937898
:1004100098420AD1C800084B185A1388984204D150
:10042000C800054BC01840687047491C0348006865
:100430008142E8D30020F7E7EC3000203C28002080
:1004400002460E480068022815D20C480068C00019
:100450000B4BC018138803805388438007480068FB
:10046000C000074BC018416004480068401C034BA3
:100470001860002070470420FCE700003C280020A2
:10048000EC30002001490860704700004015014031
:1004900001484068704700000015014010B504464F
:1004A0000348846003211120FCF7E8FF10BD000021
:1004B0000015014010B5012000040A4948600949AF
:1004C000403948601120FCF743FF1120FCF74AFF38
:1004D0000120054908602F20FCF7FCFD012003499D
:1004E000087010BD40130140001001407828002022
:1004F00010B51120012181400E4A116000BF01207A
:1005000000040D4988600C494039886001200B497E
:1005100048602F20FCF7DEFD01200849886000209C
:10052000074908602F20FCF7D5FD00200549087019
:1005300010BD000080E100E04013014000100140C8
:10054000642800207828002010B5FF2109310A48CE
:10055000FFF748FC00BF08480521090240188069E0
:10056000C0B20649C968054A127D88540348007D17
:10057000401C0249087510BD00200040CC3100200D
:100580001FB5044601206946087068460472064893
:10059000C068019000200449C87408460168426898
:1005A000684690471FBD0000CC31002010B5FF21E8
:1005B00025310648FFF716FCFF2109310348FFF7F4
:1005C00011FC00210148FFF72FFC10BD0020004066
:1005D00070B5104886DF044600BF2546002D06D0C2
:1005E00000BF0DA291212846FDF7F8F900BF00BF1A
:1005F0000120FDF72FFF044600BF2546002D06D041
:1006000000BF05A294212846FDF7E8F900BF00BF0E
:1006100070BD00004C0F02002E2E5C2E2E5C2E2E84
:100620005C6D61696E2E630070B50020FDF712FFEE
:10063000044600BF2546002D06D000BF12A2F021BF
:100640002846FDF7CBF900BF00BFFDF7BDFE04460D
:1006500000BF2546002D06D000BF0BA2F42128467E
:10066000FDF7BCF900BF00BF3CDF044600BF2546D4
:10067000002D06D000BF04A2F8212846FDF7AEF9F0
:1006800000BF00BF70BD00002E2E5C2E2E5C2E2EF3
:100690005C6D61696E2E630070B506460C461546AA
:1006A00029462046C046C04670BD000001460029CC
:1006B00001D10E207047024801600020FAE70000D7
:1006C00094280020FFB581B00C4616461F46002C2A
:1006D00002D1072005B0F0BD20468107890F00290F
:1006E00001D1012100E00021002901D10720F1E71B
:1006F00009480460094806800948076009490198CB
:1007000010DF0546002D01D02846E3E70120064909
:10071000087016202EDFDDE78C28002090280020AE
:100720008428002099060200882800207CB5044611
:1007300001A90020FDF757FE054600BF002D01D09E
:1007400028467CBD00BF69460120FDF74CFE0546EA
:1007500000BF002D01D02846F3E700BF68460078AF
:10076000002802D00220207008E0684600790028A6
:1007700002D00B20207001E0002020700020E0E774
:100780000246501A0002000A7047000070B5044685
:100790000D480068002813D00B4AA16960691268EF
:1007A0009047054600BF2E46002E07D000BF07A287
:1007B000FF2160313046FDF711F900BF00BF02E0B4
:1007C0006169A069884770BD742800205254455C57
:1007D0006E52465F4C69627261726965735C6E52FB
:1007E0004635313432325F787841435C6170705FF6
:1007F00074696D65722E6300FEB50020019011488A
:100800000468114807686846FEF7EEFB0546FEF7E8
:1008100091FE0646002D05D001AA21460098FEF75C
:1008200015FC01260198FEF7CFFE002800D0012616
:10083000002E02D03846FEF7DFF900200349087089
:10084000FEBD0000642800206028002079280020D8
:1008500010B51420FCF790FD10BD000010B519492B
:100860000968002902D1174908602AE0154A016881
:100870001268126891420DD8124909680968026825
:10088000891A104A126811600E490968C1610D4940
:10089000086016E002680B4C2368216803E00C68CE
:1008A000121B0B46C969002902D00C689442F6D38A
:1008B000002902D00C68A41A0C600260C161D861E2
:1008C00000BF10BD6028002030B50246164C2168DC
:1008D000084604E0904200D103E00146C0690028C8
:1008E000F8D100BF002800D130BD814211D10E4C9B
:1008F0002468E4690C4D2C602C462468002C08D137
:1009000001240A4DAC600024094D2C600124094DDE
:100910002C700368C469CC61C869002802D00468DF
:10092000E418046000BFDFE76028002000100140E9
:100930006428002079280020FFB581B005460E46C6
:100940001746E900114A12688818694600F0C5FA8E
:100950000446002C02D1042005B0F0BD0120207017
:100960006660FFF795FDA060E760049820610A9833
:100970006061E900054A126888186946097800F044
:10098000C3FAFFF765FF0020E6E700005C280020BF
:10099000F0B589B06048FDF780F8044600BF2546F1
:1009A000002D06D000BF5DA260492846FDF716F86D
:1009B00000BF00BF584800685D490968401A0890A8
:1009C000554801685BA0FCF79DFE5F480078012850
:1009D00002D002287ED185E002205B4908705B4886
:1009E0000068FDF709F9044600BF2546002D07D031
:1009F00000BF4AA2972189002846FCF7EFFF00BFFD
:100A000000BF002507E0A80051490A58294651A017
:100A1000FCF778FE6D1C514800788542F3DB4F48A7
:100A200001784B48FDF778FA07900120C003079939
:100A3000FCF77CFB0646324649A00799FCF762FEAC
:100A40000027642130463230FCF770FB0A2148430E
:100A5000C1B2684601720A214172017A46A0FCF7D0
:100A600051FE012202A94748FDF7DCFB019046A098
:100A70000199FCF747FE002004E000218200344B7E
:100A80009950401C6428F8DB0022012189032F487B
:100A90000068FDF785F8044600BF2546002D07D005
:100AA00000BF1EA221492B312846FCF797FF00BF4B
:100AB00000BF1F48FCF7F1FF044600BF2546002D8C
:100AC00007D000BF15A219492D312846FCF786FF33
:100AD00000BF00E01CE000BF154801682DA0FCF736
:100AE00011FE15E000201849087018480068FDF74D
:100AF00083F8044600BF2546002D07D000BF07A29B
:100B00005121C9002846FCF769FF00BF00BF00BFA4
:100B100000BF09B0F0BD00000C2800202E2E5C2E76
:100B20002E5C2E2E5C6D61696E2E63004E020000FD
:100B300008280020745F735F665F68616E646C658F
:100B4000723A2025640A000001280020600F02008C
:100B50002829002025642C2025640A000228002072
:100B6000415645205449434B3A2025642C20465297
:100B700045513A2025640A0053454E543A202564D5
:100B80000A0000009C2800204E52463A2025640AA4
:100B900000000000524553544152543A2025640A43
:100BA00000000000F8B504460E46E1000C4A126849
:100BB0008818694600F091F90546002D01D10420FE
:100BC000F8BD022028706E60E100054A126888189E
:100BD0006946097800F098F9FFF73AFE0020EFE740
:100BE0005C280020F8B51F480068002839D000278D
:100BF000FFF74EFC00901C4801680098FFF7C0FD0D
:100C000006461848056811E02868B04200D90FE090
:100C10002868361A2868C7192C46ED69207C0028F8
:100C200004D0002020742046FFF7B0FD002DEBD14A
:100C300000BF0E4800780E490978884209D10C4857
:100C40000078401CC0B20A490870022801D1002077
:100C5000087007480078800006490F50FFF7F8FD3C
:100C600000BFF8BD60280020642800207028002004
:100C7000712800206828002010B51120FCF77CFBAB
:100C800010BD000010B5FF211D310A48FFF7AAF87A
:100C9000094880680849098A445C0748008A401C62
:100CA0000549088220460349052212028918C861B5
:100CB00000BF10BD00200040CC3100201FB504460D
:100CC00000206946087068460472064880680190F2
:100CD00000200449887408460168426868469047C5
:100CE0001FBD0000CC31002010B50446207800283C
:100CF00004D001282CD0022832D121E01A491B4A05
:100D000012788818FCF794FF18480078401C17499F
:100D1000087008460078401E1349085C0A2803D072
:100D20001248007814280ADB00BF104802780E49E8
:100D30000F48FDF777FA0028F7D10C49087010E04A
:100D400000BF0CA2B5216068FCF748FE00BF08E0B8
:100D500000BF08A2B9216068FCF740FE00BF00E0B8
:100D600000BF00BF10BD0000D82A002015280020B9
:100D70009C2800202E2E5C2E2E5C2E2E5C6D616930
:100D80006E2E63007CB504460E462078012828D1DB
:100D9000606801782648FCF764FE0546002D08D0FF
:100DA000012069460870019568462249096888470C
:100DB0000BE01F48FEF782F9012806D100206946A2
:100DC000087068461B49096888471948FEF776F994
:100DD00017498988884203D801211748FEF78EFEFB
:100DE00024E02078022808D169460870E068019064
:100DF000684610490968884718E02078002815D10E
:100E00000E490F48FCF708FE002803D101210B48CA
:100E1000FEF7F2FE0A48FEF751F9002806D103203A
:100E20006946087068460349096888477CBD000028
:100E3000E4310020442800204A28002048280020CF
:100E4000F431002030B587B0124A07CA04AB07C39B
:100E500000BF11480090FF20013001900F48029020
:100E6000FF200130039003230D4A694604A8FCF7D4
:100E7000FBFE044600BF00BF2546002D06D000BF84
:100E800008A20C492846FCF7A9FD00BF00BF07B027
:100E900030BD0000640F0200342B0020342C0020F1
:100EA000E90C02002E2E5C2E2E5C2E2E5C6D6169EC
:100EB0006E2E63000102000010B5FDF711FF01283E
:100EC00002D0032804D101E0002403E0012401E062
:100ED000022400BF00BF204610BD70B502460B467D
:100EE0005078401CC1B29078884200D1002110781F
:100EF000884201D1002070BD1970507818267043C7
:100F000055682C182046F6E741707047F8B505463D
:100F10000E4609A0006800900224642207A16846DA
:100F2000FCF700FC00BF224669460548FDF77AF948
:100F30000028F8D1F8BD0000560A000025630A0019
:100F40009C2800200600070000009001010000001E
:100F500000000000A000500000000000010002009E
:100F6000B82A00200B09080A0100000000509D006B
:100F70000200000103000001AC300020CC30002052
:100F80009ECADC240EE5A9E093F3A3B50000406EF1
:100F9000010100000000020000000000020100004A
:100FA0000000000000000000000000000000000041
:100FB0000000000000000000000000000000000031
:100FC00000509D0003000000000000000000000031
:100FD0000000000000000000000000000000000011
:100FE00000509D00030000000810020000280020AF
:100FF0009C00000068D70100A41002009C2800207B
:101000006C11000078D70100000000000000000013
:1010100000000000000000000000000000000000D0
:1010200000000000000000000000000000000000C0
:1010300000000000000000000024F4000000000098
:1010400000000000000000000000000000000000A0
:101050000000000000000000000000000000000090
:101060000000000000000000000000000000000080
:101070000000000000000000000000000000000070
:101080000000000000000000000000000000000060
:101090000000000000000000000000000000000050
:0410A000000000004C
:040000050001D0C165
:00000001FF
