S0140000776C747269676765725F72782E73726563F0
S11300000C9461000C9473000C94AF000C94730076
S11300100C9473000C9473000C9473000C9475008E
S11300200C9473000C9473000C9473000C94730080
S11300300C9473000C9473000C9473000C94730070
S11300400C94D2010C9473000C9473000C94730000
S11300500C9473000C9473000C9473000C94730050
S11300600C9473000C94730000000008000201005B
S1130070000304070000000000000000010204085F
S113008010204080010204081020010204081020FE
S1130090040404040404040402020202020203032A
S11300A003030303000000002300260029000000CE
S11300B00000250028002B00000000002400270079
S11300C02A0011241FBECFEFD8E0DEBFCDBF21E050
S11300D0A0E0B1E001C01D92AD30B207E1F70E948B
S11300E0C3010C946E030C9400001F920F920FB680
S11300F00F9211242F933F934F935F936F937F93AA
S11301008F939F93AF93BF93EF93FF9380910101DC
S1130110882359F0809102019091030121E0822704
S1130120909303018093020104C010920301109282
S113013002016091020182E00E941403FF91EF9199
S1130140BF91AF919F918F917F916F915F914F91EB
S11301503F912F910F900FBE0F901F9018951F92F3
S11301600F920FB60F9211242F933F934F935F93E7
S11301706F937F938F939F93AF93BF93EF93FF936B
S113018061E082E00E94140360E082E00E941403B4
S113019080910001811103C081E080930001FF91EF
S11301A0EF91BF91AF919F918F917F916F915F91EB
S11301B04F913F912F910F900FBE0F901F90189564
S11301C082E48093B00087E08093B1001092B6007F
S11301D080E68093B30082E0809370000895CF930B
S11301E0C1E060E08C2F0E94D80260E08C2F0E9456
S11301F01403CF5FC231A9F762E083E00E94D80202
S113020061E082E00E94D80283B7817F8C6083BF63
S113021083B7816083BF80917A008F7780937A005F
S113022080E880BF8FE380937E0083E080937F002B
S1130230809164008068809364008091640084608D
S11302408093640080916400826080936400809154
S1130250640080628093640080916400886080936D
S11302606400809164008064809364000E94E000D4
S113027088E08093690082E08DBB7894CF910895E3
S1130280CF93DF93EC0161E082E00E94140360E00D
S113029082E00E941403109203011092020181E093
S11302A080930101BE0180E090E00E94410210921F
S11302B0010160E082E0DF91CF910C9414030F936D
S11302C01F93CF93DF9361E082E00E94140360E008
S11302D082E00E94140385E491E00E94690208E030
S11302E010E0D1E0C0E083E00E944403019709F4E8
S11302F0CD2BDD0F8AEF90E00E94690201501109B5
S113030091F78C2FDF91CF911F910F910895CF9387
S1130310DF931F92CDB7DEB783B7816083BF889523
S113032083B78E7F83BF80910001882329F11DBA92
S1130330809164008F7D80936400809164008F7B42
S1130340809364000E945F0189830E94E000898198
S113035090E0969587950E944001809164008064A6
S113036080936400809164008062809364001092A2
S1130370000182E08DBB78940F90DF91CF910895B6
S11303800C94870108950E9474020E94C2010E9485
S1130390EF00C0E0D0E00E94C0012097E1F30E948A
S11303A00000F9CF1F920F920FB60F9211242F93D2
S11303B03F938F939F93AF93BF9380910501909147
S11303C00601A0910701B09108013091040123E0D6
S11303D0230F2D3720F40196A11DB11D05C026E879
S11303E0230F0296A11DB11D2093040180930501E2
S11303F090930601A0930701B0930801809109012D
S113040090910A01A0910B01B0910C010196A11DDC
S1130410B11D8093090190930A01A0930B01B0933D
S11304200C01BF91AF919F918F913F912F910F90AC
S11304300FBE0F901F9018953FB7F8948091090153
S113044090910A01A0910B01B0910C0126B5A89BD3
S113045005C02F3F19F00196A11DB11D3FBFBA2F52
S1130460A92F982F8827820F911DA11DB11DBC01B2
S1130470CD0142E0660F771F881F991F4A95D1F777
S11304800895CF92DF92EF92FF92CF93DF936B01A7
S11304907C010E941C02EB01C114D104E104F104AB
S11304A089F00E946D030E941C026C1B7D0B683E48
S11304B0734090F381E0C81AD108E108F108C851EB
S11304C0DC4FEACFDF91CF91FF90EF90DF90CF9098
S11304D008958230910538F0880F991F880F991F6D
S11304E005970197F1F70895789484B5826084BDE7
S11304F084B5816084BD85B5826085BD85B5816024
S113050085BDEEE6F0E0808181608083E1E8F0E083
S11305101082808182608083808181608083E0E8B2
S1130520F0E0808181608083E1EBF0E08081846091
S11305308083E0EBF0E0808181608083EAE7F0E093
S113054080818460808380818260808380818160F7
S113055080838081806880831092C10008958330F5
S113056081F028F4813099F08230A1F00895873029
S1130570A9F08830B9F08430D1F4809180008F7D67
S113058003C0809180008F7780938000089584B5A4
S11305908F7702C084B58F7D84BD08958091B000AB
S11305A08F7703C08091B0008F7D8093B000089551
S11305B0CF93DF9390E0FC01E458FF4F2491FC01BA
S11305C0E057FF4F8491882361F190E0880F991FD1
S11305D0FC01E854FF4FC591D491FC01E255FF4F53
S11305E0A591B491611109C09FB7F89488812095B1
S11305F082238883EC912E230BC0623061F49FB771
S1130600F8943881822F809583238883EC912E2B54
S11306102C939FBF06C08FB7F894E8812E2B2883B4
S11306208FBFDF91CF9108951F93CF93DF93282F2E
S113063030E0F901E859FF4F8491F901E458FF4F84
S1130640D491F901E057FF4FC491CC23C9F0162F80
S113065081110E94AF02EC2FF0E0EE0FFF1FE25574
S1130660FF4FA591B4918FB7F894111105C09C91D7
S1130670ED2FE095E92302C0EC91ED2BEC938FBFB5
S1130680DF91CF911F910895CF93DF93282F30E00E
S1130690F901E859FF4F8491F901E458FF4FD491CF
S11306A0F901E057FF4FC491CC2391F081110E94CE
S11306B0AF02EC2FF0E0EE0FFF1FEC55FF4FA591BA
S11306C0B491EC91ED2381E090E021F480E002C04C
S11306D080E090E0DF91CF9108950895F894FFCFE2
S9030000FC
