:020000040001F9
:1080000040300020F58001000F8101001181010046
:108010000000000000000000000000000000000060
:1080200000000000000000000000000013810100BB
:108030000000000000000000158101001781010010
:108040001981010019810100B1830100198101002A
:108050001981010000000000C581010019810100A3
:1080600019810100198101001981010019810100A4
:108070001981010019810100198101001981010094
:10808000198101001183010019810100198101008A
:108090003183010019810100398301001981010038
:1080A000198101001981010000000000000000009A
:1080B00000000000000000000000000000000000C0
:1080C0000348854600F06CF800480047399F0100DE
:1080D00040300020401E00BF00BF00BF00BF00BFF7
:1080E00000BF00BF00BF00BF00BF00BF00BFF1D195
:1080F000704700000321094802680A4302600848EB
:1081000002680A4302600748804707480047FEE7C5
:10811000FEE7FEE7FEE7FEE7FEE70000240500407D
:10812000540500405D830100C180010030B50B465D
:10813000014600202022012409E00D46D5409D4241
:1081400005D31D469540491B2546954040191546C7
:10815000521E002DF1DC30BD03460B439B0703D0BC
:1081600009E008C9121F08C0042AFAD203E00B78FC
:108170000370401C491C521EF9D27047D2B201E074
:108180000270401C491EFBD270470022F6E710B572
:1081900013460A4604461946FFF7F0FF204610BD75
:1081A000064C0125064E05E0E36807CC2B430C3C4A
:1081B00098471034B442F7D3FFF786FF30B0010080
:1081C00050B00100F8B50024FF25013501262746EF
:1081D0000094284602F07AFA002808D03448406813
:1081E000304204D0334800212818344301602D1D4B
:1081F00076007F1CADB2042FEBD3FF207D3002F060
:1082000065FA002807D02C4800210160400704438C
:108210002A48006900902A4F200712D00126002525
:1082200026420AD02748AA00111808690969C00423
:10823000C00E8903BA58890F904776006D1C042D33
:10824000EED3002C30DA00241D4E002130194030CE
:108250004156491C25D00778BD06AD0E284601F0D1
:108260008FFB80003658002E1BD0BF090121A9408A
:10827000154AA80080180068009A8003800F1142F8
:1082800002D0022802D00CE003280AD1032F05D126
:1082900002280AD00221284602F008FA3946284668
:1082A000B047641C042CCFD3F8BD0321F3E70000D2
:1082B00000630040006000407C6100400005005009
:1082C000BC27002000650040000700508307FF2204
:1082D000DB0E9A408907090E994000280BDA000747
:1082E000000F0838830808489B001818C369934397
:1082F0000B43C3617047830804489B001B18186830
:10830000904308431860704700ED00E000E400E08F
:1083100010B506490020086048608860C8600349BD
:1083200040390860486002F017FC10BD4011014060
:1083300010B502F0A7FB10BD10B507484068002833
:1083400007D08047002803D00022114600F07AFBB6
:1083500010BD01F081FC10BDC420002010B501F05B
:10836000C9FC002805D00E490C484860C8130D49C7
:1083700088610D48018CC9B201290ED1818C090791
:108380000BD1018D0906090F042906D1808D000645
:10839000000F02D105490120886010BDDFFF07C032
:1083A00000050040006C0040C00F00F000060040D7
:1083B000F0B53C4D012185B04902284602F095F9FF
:1083C00001270026384C002823D0FF2125312846DC
:1083D00002F086F900281CD0FF2025302E50812085
:1083E000324980008860607D002800D16F600221E2
:1083F000684601702E49086808600390E17C684671
:108400000172E0680190E67406CC6846083C90472B
:108410001DE00421284602F068F9002817D0FF214A
:108420000931284602F05CF9002810D002F01CFA4D
:10843000E07C217D88420AD1607D002800D16F60F8
:1084400081201A4980008860207D02F073FAFF21A4
:108450001D31284602F044F900280DD0A07C218A65
:10846000884202D902F0BAFB06E0FF211D316E50AE
:10847000002801D002F008FCFF214531284602F017
:108480002FF900280CD0FF2045302E50607D0028A9
:1084900000D02F60E07C002802D0207D02F04AFA54
:1084A00005B0F0BD0020004004280020002300405B
:1084B000802400400FB410B503A9044B044A02986D
:1084C00000F024F810BC08BC04B01847FB9B010066
:1084D000C020002030B47446641E2578641CAB4272
:1084E00000D21D46635D5B00E31830BC184702E014
:1084F00008C8121F08C1002AFAD17047704700202F
:1085000001E001C1121F002AFBD17047FFB58DB0F9
:108510000F460546002606E025280AD0109A0F9936
:1085200090476D1C761C28780028F5D1304611B094
:10853000F0BD00240121674A009400E004436D1C53
:108540002B780846203B98401042F7D128782E28F7
:1085500015D10420044368786D1C2A280AD101CF64
:108560006D1C00900BE000990A22514330394018ED
:108570006D1C00902878014630390929F3D92878F4
:10858000692843D006DC0028D0D063280BD06428AB
:1085900004D13BE073280FD075284CD0109A0F9966
:1085A0009047761C94E0387869460872002048723B
:1085B00002A80190012003E0386801900020C04328
:1085C0003F1D61070CD5002400E0641C00998C421B
:1085D0000FDA8442F9DB0199095D0029F5D108E041
:1085E000002400E0641C8442FCDB0199095D002941
:1085F000F8D1361907E0019801990078491C0191DA
:10860000109A0F999047641EF5D261E00A200190FC
:1086100001CF002802DA40422D2102E0210504D5D5
:108620002B216A461172012103E0E10701D02021CC
:10863000F7E70C9104E00A20019001CF00210C9192
:108640000BA90B9108E00199FFF770FD0A460B9901
:108650003032491E0B910A700028F4D10B9803A9FF
:10866000081A20300190600701D5009801E0012030
:1086700000900199884203DD01460198081A00E044
:1086800000200024009006E002A8109A005D0F99D7
:108690009047641C761C0C988442F5DB04E0109A29
:1086A00030200F999047761C0099481E00900029B1
:1086B000F5DC08E00B980B990078491C0B91109A97
:1086C0000F999047761C0199481E01900029F1DC12
:1086D0006D1C28E709280100F7B584B0002516882D
:1086E00007461580406B1446002813D00378059880
:1086F000032E51D30221017021881122491C89B215
:10870000218042542188491C89B221804354208809
:10871000401C2080386B00281DD005462088059914
:1087200002461232B24237D811220A54208810224F
:10873000401C80B220800A542088401C20800F20DA
:108740002A5C2388401ECA54228840B2521C2280D0
:108750000028F5DA0025384620300290807B00287A
:1087600006D033462246059901F0E8FA050014D1F7
:108770000298407B002806D032462146059800F03A
:1087800067FD050009D1B878002823D005988646F2
:108790002088001DB04202D90C2007B0F0BD684609
:1087A00079DF0028F9D121880320724650542088AF
:1087B0001921401C80B22080115420887146401C31
:1087C00080B2208041186846008802F0F3FA2188C0
:1087D00040182080F878002817D0218803230A4603
:1087E000FB56C91C0598B142D6D802218154218874
:1087F0000122491C89B2218042542188491C89B236
:10880000218043542088401C20807868002817D09D
:1088100021880023C3560A46C91C0598B142BBD81B
:108820000221815421880A22491C89B221804254A4
:108830002188491C89B2218043542088401C208013
:10884000388900280AD00094384601960622022171
:108850000830059B02F023FB05009ED1388A0028D2
:108860000AD0009438460196072203211030059B58
:1088700002F015FB050090D1388B00280AD0009437
:1088800038460196152214211830059B02F007FB8B
:10889000050082D1386A002806D033462246059961
:1088A00001F0CAF80500D8D1786A002806D033460E
:1088B0002246059901F02CFC0500CED10298007BE0
:1088C000002807D0334622463846059902F050F872
:1088D0000500C2D13878002807D0334622463846F2
:1088E000059901F049FC0500B7D1284655E710B5B8
:1088F00001220221002000F06FFE002801D007288D
:1089000012D107220221012000F066FE002801D0CA
:10891000072809D100210A22084600F05DFE002840
:1089200001D0072800D1002010BD000030B5A7B04D
:10893000382101A8FFF729FC0221684601710024B3
:1089400084710521C17138210FA8FFF71EFC012594
:1089500010A885810D48149024211DA8FFF715FC4F
:1089600020A8057040202190B4202290084B1DAA19
:108970000FA9009401A800F015FA002803D00022E6
:10898000114600F05FF827B030BD00000420002041
:10899000FDA60100044842680121C9050B46934326
:1089A00083600A40C26070470005005070B5002423
:1089B000064D06E06968E000085C012101F05CFCFE
:1089C000641C28788442F5D3002070BD8C200020E0
:1089D000F8B515460C460646052A01D20720F8BD13
:1089E00001F020FD002803D101F0F2FC0028F6D1AF
:1089F000104900204E600C70C8608D6008610E4DFB
:108A00000DE0E00069688019009181786A46517034
:108A100000780A4A694601F07FFC0028DFD1204631
:108A2000641EE4B20028ECD1054A0021024800F09F
:108A300041F8F8BD8C20002028B00100099C0100FD
:108A4000359B0100BFF34F8F04490348C860BFF353
:108A50004F8F00BFFDE700000400FA0500ED00E0C5
:108A600010B58268C368934203D001F0B3F80020C8
:108A700010BD052010BD002906D0002A02D0531ECB
:108A8000134203D0092070470E2070470160838095
:108A900000218160C1600846704710B58268C368D4
:108AA0009A1A83889A4203D801F09EF8002010BDDC
:108AB000042010BD094B9B68002B07D0002A07D06B
:108AC000002805D00068037C002B03D008207047E5
:108AD000072070474174426100207047A0200020A9
:108AE000FFB59007002581B014460E46002832D10C
:108AF0001B4F002C31D001F095FE049878610320C3
:108B0000387033461821224600204B43BC6018348D
:108B1000C10089180D704D708E704C601C19401C7E
:108B20000328F5DBFD607D7001240E48BD7024052F
:108B3000046003211420FFF7C9FB0B4804600B4CB1
:108B40000198A06003211120FFF7C0FB6068386125
:108B5000002005B0F0BD0720FBE7BD60FBE700008B
:108B6000A020002080E200E000E100E000150140CC
:108B7000FEB50D461B4917468968044600292AD0D0
:108B8000002C28D0052D01D20720FEBD60690028E9
:108B900021D0607C012820D0002602F043F9C000DB
:108BA0001049019089684018694602F065F900286B
:108BB00015D0012101700C49446049680830E2C0B9
:108BC000084901988968411868460078487001F0A2
:108BD0009BFF0020FEBD0820FEBD2E46DDE70420E1
:108BE000FEBD0000A020002000150140F8B5134D87
:108BF0000446A96800291CD0002C1AD060690028FE
:108C000017D00026267402F00DF9C700A86869463F
:108C1000381802F031F900280DD0022101704460AB
:108C2000A868391868460078487001F06DFF304632
:108C3000F8BD0820F8BD0420F8BD0000A0200020E9
:108C400010B5044609488168C2688088511A81427B
:108C500007D10121064801F045FC002801D005207C
:108C600010BD21460148FFF7FBFE10BDC4260020C1
:108C70006220002070B50446224888B01E460D00D0
:108C800042601CD0A888296882B21F48FFF7F3FE13
:108C9000002815D1A889A96882B21B481030FFF7B7
:108CA000EAFE00280CD1202218496846FFF754FA42
:108CB000A06806902079002804D0012103E0072055
:108CC00008B070BD002168460175067760790028FC
:108CD00000D00E2069464875E0780290A078039095
:108CE00020780190607800900949684601F0A2FB65
:108CF0000028E5D101F050FC02480121801C01F060
:108D0000F1FBDDE760200020C4260020E8AF010071
:108D100011AD010010B50446064801214470401C05
:108D200001F046FC112803D121460348FFF7B5FEA8
:108D300010BD000060200020D4260020F0B50C46B5
:108D400093B01F216A4611800726002791800028D2
:108D500009D0C17849070DD502A9FFF7BDFC00284D
:108D600009D102AD01E000251780002C0ED0E0787B
:108D7000002802D0304613B0F0BD01AA0AA920464F
:108D8000FFF7AAFC0028F6D10AAA02E068460022F2
:108D9000878068468088C3B268460088C1B228468A
:108DA00072DFE8E770B50D4604991646040042D01C
:108DB000002E40D0424800224271C360016124224B
:108DC00031464048FFF7C8F900F0B8F83D49343162
:108DD0000846103801602031816038215C38FFF787
:108DE000D4F93848217838380170A1788170E17859
:108DF000C170617841706269216942610161E26814
:108E0000A168C26081600146E369A269CB618A61A1
:108E1000616A002919D00146AC310246B83241627C
:108E20008A60636A1B880B80616A436A89889980BB
:108E30000021436A06E00E2070BD666AB668765C63
:108E40005654491C9E888E42F7D8A16A00291CD02E
:108E50001C4AAC3211460C398A608162A36A9B8835
:108E60008B80A16A836A098819800021836A04E0E3
:108E7000A66AB668765C5654491C9E888E42F7D81E
:108E80002C210A5D0F4918390A73216A002909D07B
:108E90000B4914310162226A52884A80216A026AAF
:108EA000098811806168002904D00549891D416045
:108EB00061684160034829463838FFF73FFF70BDBD
:108EC0002C200020BC25002010B502881A4C102A46
:108ED00017D00021112A17D0192A11D18079002822
:108EE0000ED1607901281BD002281FD003281FD083
:108EF000042805D12171E2680846002A00D0904775
:108F000010BD8088208110BD6170808821898842D1
:108F1000F9D1012005E021690029F4D0884710BD6E
:108F2000022000F033F80028F5D110BD0320F8E747
:108F3000032020710420F4E72C20002010B5072125
:108F40000148FFF722F910BD4420002010B50D485C
:108F50000078012814D10C4C6078002810D1607979
:108F6000002802D074DF00280BD1012060706079E6
:108F700000F00CF8002803D02169002900D08847B0
:108F8000002010BDBC2500202C200020F0B5754C21
:108F900087B06071002606A8069601F02FFC012715
:108FA000082806D000286FD10698002802D0277024
:108FB000D4E00696FFF7C2FF6B4D6878002802D018
:108FC0006079012805D0A87800280AD060790228A5
:108FD00007D1E168002903D0E7700820884700E046
:108FE000E6706079012808D16878002809D05D48CA
:108FF000193001F0DFFB002803D06079022802D08D
:109000000CE002206071A878002805D0554819307E
:1090100001F0D0FB002801D103206071287B0028DB
:1090200004D16079032801D104206071287E0028D2
:1090300004D16079042801D166712671E1680029A4
:109040000AD06079032801D0042805D128780028A7
:1090500002D06078002818D0A67018216846FFF763
:1090600094F86846067001960672039660790128A6
:109070000FD0022816D03C4E243637465C3F0328DA
:109080001CD004285ED13BE069E0A7700720884728
:10909000E3E734481830019068460770468206823C
:1090A000277152E02F4818300190684607702989CF
:1090B0004182A98801820220207146E0A88A69467F
:1090C0004882288A08822848243001F057FF002867
:1090D00005D02878002802D06078002801D003202D
:1090E0002FE002206946087204200396F8701E489B
:1090F00000213838FFF722FE002830D1052020E07B
:10910000A88B69460882288C48821748243001F0D1
:1091100035FF002805D02878002802D06078002884
:1091200001D004200DE00220694608720420039655
:10913000F8700D4800213838FFF700FE00280ED1E6
:10914000062020716079002803D0684673DF00286C
:1091500005D1E168002901D020798847002007B0B7
:10916000F0BD00002C200020BC25002070B5054675
:1091700001461C220E48FEF7EFFF0E4C002626701B
:109180002968002906D00822201DFEF7E5FF201DD2
:109190007ADF02E00748001D7BDF002807D1401E70
:1091A00060806670044A00210448FFF783FC70BDAC
:1091B000A82600204C200020C1AD0100D4AF010042
:1091C000F8B5214C028800271E4DE689102A15D0DB
:1091D0001E49112A21D0122A2DD0502A1CD1C28812
:1091E000801DB24218D1028B022A15D1C27E837E25
:1091F00010021843C007C00F0CD112E081886980AB
:1092000001461048082216310C30FEF7A5FF6F709A
:10921000002E01D100F05AFCF8BD0020C043688048
:109220006F700868FFF7E2FC0028F5D0A1690029FB
:10923000F2D08847F8BD811D024808220C30FEF7A5
:109240008BFFE7E74C200020A8260020D4AF0100C8
:109250007CB5054608880C460930904201D90C209F
:109260007CBD684671DF0028FAD121880820685447
:1092700020881B21401C80B220802954208800A90E
:10928000401C80B22080401906220131FEF764FFA5
:1092900020886946801D80B220800978002900D08E
:1092A000012129542088401C208000207CBD000022
:1092B00010B50446FFF784FF2146064800F040F849
:1092C000204601F02DFA2046FFF7FEFD204600F073
:1092D000B7F810BDFC24002030B5184B0D46040033
:1092E0000FCB85B003936B4607C324D0002D22D04B
:1092F0000020C043A0822868A0610020A0752146FC
:10930000684663DF002814D1217868468174012102
:109310000182A21C04A90120A0DF002809D129464E
:10932000204601F0B7FA002803D12946204601F073
:109330006BFC05B030BD0E20FBE70000D8AF01008C
:1093400000281ED000291CD00A88102A14D0112A07
:1093500014D0502A15D1CA88038A891D9A4202D195
:109360000B8B022B0ED083889A420AD18369002B83
:1093700007D00A8B1A311847898801E00021C943B8
:1093800081827047CA7E8B7E11021943C907C90FBB
:1093900000D001218175704707B584B000280DD039
:1093A000828A114B9A420BD0827D002A08D06A46ED
:1093B000128B142A06D9072007B000BD0E20FBE748
:1093C0000820F9E70022009201920292039282891A
:1093D0006B461A80039106A9029101219970808A37
:1093E0006946A6DFE8E70000FFFF00007CB5134EEA
:1093F00000250C463060002918D06946002000F096
:10940000B5F8002819D101A9012000F0AFF8002813
:1094100013D1684601790020002901D0022004E020
:1094200069460978002900D00B2020707068002858
:1094300002D1FFF75CFA054628467CBD20200020BB
:1094400010B51C4C0188606810290DD011290AD173
:10945000401E606007D1FFF74AFA002803D0216858
:10946000002900D0884710BD00281ED1002101220C
:10947000084600F0B1F8002801D0072811D10722D2
:109480000221012000F0A8F8002801D0072808D107
:1094900004220221002000F09FF8002805D00728B0
:1094A00003D02168002900D088476068401C6060B4
:1094B00010BD00002020002010B5032000F00AFAA3
:1094C000002801D0062800D1002010BDF8B50746BD
:1094D0000024234802E0641C042C1AD2A200825803
:1094E000BA42F8D1042C14D21D481E4E0C38002963
:1094F00029D001290ED002290BD160002018801933
:109500004578002D05D018480169002901D028466A
:109510008847F8BD61006118755C8E197178002963
:109520000CD011490A224968806851430E4A521CE6
:10953000FFF71EFB002801D10B4847700A48B1789D
:1095400014300155DDE78068FFF750FB06486100E5
:10955000611814308919005D8D78A842D1D0F8BD0A
:10956000A4AF0100582500200820002004280CD2B8
:10957000074A1269074B80001B5C0120984090430A
:1095800000D001200870002070470020FAE700009A
:1095900000050050A4AF010010B5042808D007282A
:1095A00012D00A2801D00F2801D101F028FA10BDED
:1095B00008481321408876DF08E00028F7D0002211
:1095C0001146FFF73FFA10BDFFF7C0FC0828F4D1A1
:1095D00010BD00000020002070B50023042811D227
:1095E000440004190D4D012A02D101290DD0002299
:1095F00046008019094E801900290CD0012906D097
:10960000022906D00723184670BD0D30C2B22A5574
:10961000F9E74270F7E78270F5E70000582500206F
:1096200010B5054A0146127A0020D20702D008463A
:1096300000F054F810BD00000820002070B50E4660
:10964000204905464E608D6000200A61A9071ED59D
:109650000024012211462046FFF7BEFF641C042CA3
:1096600002D20028F5D012E0002810D1720804219F
:109670001548FFF7ADF9002809D1FFF797F9002841
:1096800005D11148114A00211438FFF713FAE907F0
:1096900006D00F220E4952058A600023CB608A61F2
:1096A00000280DD108480B4A00211C38FFF702FAA8
:1096B000002805D10448084A01211838FFF7FAF9B3
:1096C00070BD000008200020B4AF01001199010016
:1096D00000050050919D010095890100FEB57A4D6D
:1096E0000722EB6892059A4302936B6800939C00F3
:1096F00006461B1900200121019349050746734CBA
:109700003300FEF7E7FE180D1515374755677C88BF
:109710007F8891DE9E9E9E9E9EC8CED1D8DEDE14AE
:109720000F21029A49059143A160E7602F70FEBDA9
:10973000A260E76060680F2252055040800209D5A0
:10974000A160E760022E02D1E120C0000AE07D2086
:10975000400107E0E160A760022E01D1C82001E0CE
:10976000FF2091302E706421FEF7E0FC0099414308
:1097700000223FE0A260E76060680F22520550407F
:10978000800204D5A160E76019204001EAE7E160AA
:10979000A760E3E7A260E76060680F2252055040CF
:1097A000800202D5A160E760D1E7E160A760D7E75A
:1097B000A260E76060680F2252055040800202D527
:1097C000A160E76001E0E160A7602E7000984100B1
:1097D00000220FE0A260E76060680F22520550404F
:1097E000800202D5A160E76001E0E160A7602E7011
:1097F0000099002236480068FFF7BAF9FEBDA26062
:10980000E7601BE061680120800502468A43A26090
:109810000140E16010E06068012189050A46824349
:10982000A2600840E060E3E76068012189050A461C
:109830008243A2600840E0600199C9E7E160A76047
:109840002DE023484068FFF7D1F911218A1B01D090
:10985000002807D00F22E96852051140A160E76097
:10986000EF60FEBD0121C905E960012A0CD910464F
:10987000C82148436421FEF759FC6968002241432E
:1098800013484068FFF774F90F22E9685205114048
:10989000E160A760FEBD0F214905A160E7602E7061
:1098A000FEBD07229205AAE70D214905A160E760E8
:1098B00001218905C2E70321C905A160E76089107C
:1098C000BCE70F214905B9E708200020000500503A
:1098D00098AF0100F0B500210B4C0C4D03273F045D
:1098E0008A00A25892005619326801238B40034027
:1098F00000D00323BA431B0413433360491C0429DB
:10990000EED30020F0BD0000A4AF0100000700501E
:1099100010B500780221FFF7D9FD10BD0022D24317
:10992000830004490428CA5002D308182030027763
:1099300070470000BC270020F0B50025ED43002A49
:1099400002D00023042601E0042308260B4C04E087
:109950009F00E7597F1C04D05B1CB342F8D3284614
:10996000F0BD26185DB2203635709E00A151002A48
:10997000F5D1E11820310877F1E70000BC2700207D
:10998000024909182020085670470000BC27002013
:10999000F8B52348C16800293ED00E6821494C68BB
:1099A0000769C078E11B0D022D0AED1C002814D1B7
:1099B00001201D4A000450601B4A403A50601B4978
:1099C000400008601A4908601A49012008602F20E9
:1099D000FEF780FB12490120C870B54200D235461F
:1099E000E81900020F4B000A403318600D4A516815
:1099F000001B091B0902090A0002000AC91C814256
:109A000009D9506818602F20FEF764FB0120074930
:109A1000400480390860F8BD00F004FFF8BD000084
:109A2000A0200020001501404013014080E200E02A
:109A300000E100E000100140F8B506461088144629
:109A40008446801D0D46984201D90C20F8BD32880D
:109A50000720062AFAD31927FF01184BBA4201D969
:109A60009A42F3D171880629F0D3B94201D99942BB
:109A7000ECD19A4203D0994201D08A42E6D805211E
:109A80006046295420881221401C80B2208029542D
:109A90002088401C80B220804119308801F08AF96A
:109AA0002188401880B220804119708801F082F925
:109AB0002188401820800020F8BD0000FFFF000032
:109AC00010B500221146FEF7BDFF10BDF8B51648CF
:109AD00000F002F9144D00260C3D144C002807D06C
:109AE000616900291CD001206A461070684616E0A2
:109AF0002878002805D06169002911D068460670D1
:109B00000DE0687800280DD0A1680948002200689F
:109B1000FFF72EF8002803D0A169002900D088475C
:109B20002E70F8BD6168F0E758200020A8260020BC
:109B3000D4AF0100F8B500260124154D23E0696873
:109B4000F0004718387821462A698140114218D020
:109B50008A432A6100F032FC3A782146EB68914052
:109B600019400346934099420BD17978012901D0DD
:109B7000012100E000217B684140002B01D010460C
:109B80009847761CF6B228788642D8D3F8BD0000F4
:109B90008C20002010B50E4900234A788C78A24210
:109BA00012D0521CD2B24A70022A00D14B704A78AD
:109BB000074B920018339A58026008691018000287
:109BC000000A0861012010BD0360002010BD0000E4
:109BD000A0200020826883881A4003689A5C0A707B
:109BE0008168491C81607047C26883881A40036895
:109BF0009954C168491CC160704710B50446C0B291
:109C0000FFF788F8204610BDF8B50746104E01252D
:109C1000BD403068FEF7EAFF00280DD10D4C2069E9
:109C2000284207D1384600F0C9FB0028E06804D07C
:109C3000284303E0A8432061F8BDA843E060206901
:109C4000002228432061A1683068FEF791FFF8BD2B
:109C500028B001008C200020F8B51E4C2078002888
:109C600037D02069002807D00026E068002805D0FA
:109C70000025002E04D013E00126F6E70125F8E7C1
:109C8000684651DF052806D0002806D0002211467C
:109C9000FEF7D8FE04E0012602E02169009888471B
:109CA000002D12D1608869460880A06861DF052810
:109CB00006D0002806D000221146FEF7C3FE04E0BD
:109CC000012502E0E168A0688847002ED8D0002D69
:109CD000CFD0F8BDC42000204188054802889142B9
:109CE00004D34088814201D801207047002070478A
:109CF000502000201048018CC9B2012917D1818C55
:109D0000090714D1018D09060A0F03D1828D1206AD
:109D1000120F0ED0090F012903D1828D1206120FE6
:109D200007D0032903D1808D0006000F01D0002049
:109D30007047012070470000C00F00F030B5158853
:109D4000EC1C9C4201D90C2030BD02244C551388D8
:109D50001C255B1C9BB21380CD5413885B1C9BB2EB
:109D60001380012807D0022807D0032807D0042831
:109D700007D0072030BD002004E0012002E0CC54D1
:109D800001E00320C8541088401C1080002030BD22
:109D900010B50448017AC90702D00078FFF79EFC8D
:109DA00010BD000008200020F8B52C49C8680A69D9
:109DB0000C780F7989688646944600913EE00099B8
:109DC000E20055182A7836E0182353436968521C7C
:109DD000C918AB78D2B2934200D100220B78022B83
:109DE00002D0032B27D123E04E680346014603E04F
:109DF000B14204D00B46C96900291CD0F8E70029FC
:109E000019D08B4208D1C069002805D1144F012612
:109E1000BE600026B44601270E68C969D9610029D1
:109E200009D00B689B190B6005E00174C06900E064
:109E300000210028F9D169789142C5D12146641EDC
:109E4000E4B20029BBD1054962460A61C8600F71BE
:109E5000704501D00120F8BD0020F8BDA0200020F1
:109E600000100140F8B5044631480026C168009151
:109E700007784EE02E48F90080680D1843E0002C6A
:109E800002D02046E4691FE02878182141436A681F
:109E9000401CC0B251182870AA78904200D12E7090
:109EA0000A784868012A30D1027C002A2DD18A68BC
:109EB0004260CA6882600A69C260496981611C495E
:109EC0000979002900D04660194943680A699C460F
:109ED000991A0902174B090A994202D28268891815
:109EE00007E06146511A09028268090A8A4202D9CA
:109EF000511A016000E0066046600121866001742D
:109F0000C66100F009FE002CB9D128786978884232
:109F1000BAD138467F1EFFB20028ABD10448C168D1
:109F20000098814201D00120F8BD0020F8BD00005A
:109F3000A0200020FFFF7F008CB063A107C9002391
:109F4000049203910290634A05211846FEF7C8FD6A
:109F5000002803D000221146FEF774FD5E4A09ABCB
:109F600007CA07C3FF2101315C48059040180691DC
:109F70000891079003235A4A05A909A8FEF77AFE1B
:109F8000002803D000221146FEF75CFD554A5649D1
:109F90000320FFF753FB002803D000221146FEF7F1
:109FA00051FD69460020FFF721FA002803D0002266
:109FB0001146FEF747FD68460078022879D0002058
:109FC000694608714549002348225C39082000F0A1
:109FD00041FD002803D000221146FEF733FD002486
:109FE000009468460194047060DF002803D00022CA
:109FF0001146FEF727FD3D4800F022FD002803D062
:10A0000000221146FEF71EFD1120694608760B223C
:10A0100037A106A87CDF002803D000221146FEF7F6
:10A0200011FD009406206946019408804880FF20B5
:10A030008C809130C88068467ADF002803D00022E7
:10A040001146FEF7FFFC2D48009069462C48FFF7AB
:10A0500043F9002803D000221146FEF7F3FCFEF777
:10A0600065FC1C2105A8FEF790F80520C0030690AA
:10A070000F20000407900594032108A8017068468A
:10A08000448408A804711F480A901F480B9005A833
:10A09000FFF76CF8002803D000221146FEF7D2FC2F
:10A0A00002A91AA0FEF706FA0320FEF76FFF03E0ED
:10A0B000FFE7012084E748DF0028FCD0002211469A
:10A0C000FEF7C0FCF7E7000053746172742E2E2E69
:10A0D0000A000000342300208CAF0100342100204E
:10A0E000A9AC010099950100CD0C0000B1920100CE
:10A0F0004E6F726469635F5541525400FBA60100C4
:10A10000FC24002091A70100C19A010025730000E2
:10A1100070B5144682880E4605462088111D4118E8
:10A12000921C994201D8FE2A01D90C2070BD521C04
:10A1300032542088FF21401C80B220803154208876
:10A14000401C80B220808119288800F033FE2188CD
:10A15000401880B22080AA88002A09D0A968002966
:10A1600008D08019FDF7F8FF2088A98840182080C2
:10A17000002070BD072070BDF8B50F460178144669
:10A180000546012902D16878002806D02088821C63
:10A190009A422DD8012902D006E00720F8BD69783F
:10A1A0004118891C994223D8181A801E86B2684625
:10A1B00006802188B81C081869467DDF0028EDD18B
:10A1C0002878022805D169460988B14201D80921B9
:10A1D0000AE00821012805D16878B04202D86A4611
:10A1E000108001E06846068068460088FE2801D994
:10A1F0000C20F8BD2288401CB8542088401C80B236
:10A200002080395420886946401C208009884018E5
:10A2100020800020F8BD00008207D30EFF229A4064
:10A220008907090E10B5994000280BDA03071B0FA8
:10A23000083B9C080C4BA400E318DC6994430C43D6
:10A24000DC6107E08408094BA400E4182368934309
:10A250000B432360C106C90E0120884004490860F1
:10A260000449086010BD000000ED00E000E400E0DB
:10A2700080E200E000E100E0F3B581B00F46019814
:10A2800000F0A4FA012400281E4E019817D0FFF711
:10A2900077FB80192030007F8009032802D0012835
:10A2A00006D007E01848006901998C40204201D18E
:10A2B000022100E00321019800F0F8F9FEBD00F052
:10A2C00091FA0028FAD00198FFF75AFB0546810061
:10A2D000C81D0E4AF93089180A6980B222430A6102
:10A2E0000B49401800210160002FE7D00198FFF7CB
:10A2F00047FB800030580028E0D00648AC4044605E
:10A30000FEBD0000BC270020000500500065004095
:10A310000060004000630040FEB5044623480E463E
:10A320000019202141560027C8171346401C01D0B0
:10A33000082738E0F27819462046FFF7FDFA05466F
:10A34000401C2FD0B078002807D01948A100091868
:10A35000086802229043086007E0002173782046D5
:10A3600000910A46019100F069F9F078002810D0B8
:10A370001048AA001018317802690F4B1A40026188
:10A38000E206D20C8907890B0A4301690A4302617C
:10A3900009E00648327840192030017F92011143CC
:10A3A000017700E004273846FEBD0000BC270020EE
:10A3B0000007005000650040FFE0FCFF0349096909
:10A3C000C140C807C00F00D00120704700050050F1
:10A3D00070B5124D2879002801D0082070BD0F49B2
:10A3E00000204039421E0B182033401CC0B21A70A6
:10A3F0002028F8D300242046FFF790FA641CE4B22A
:10A40000082CF8D303210620FFF706FF012004499A
:10A41000C007486001202871002070BDFC27002083
:10A420000063004002480079002800D001207047F6
:10A43000FC270020F3B50446244881B0807D002825
:10A4400001D00820FEBD002C00D1214C206800F076
:10A4500022F92078012739461E4E8140B160002143
:10A46000606800F00FF91C4DA0696862607D217D75
:10A470000843E86603CCE8606961207B083C01285A
:10A480000ED10021A06800F0FDF8E06800F003F9AB
:10A49000207B39468140B160E168A068A9602861ED
:10A4A0000A4E0298706021693160002806D00C4A7B
:10A4B000217F0A4850600220FFF7AEFE042028608A
:10A4C0000020F074B074B7757075FEBD04280020CC
:10A4D00008B0010000050050002500408000020087
:10A4E00000230040F8B5294DEA7C002A01D0112054
:10A4F000F8BDE974E86000202875687D002801D166
:10A5000000F028FA6868224C002805D081202149F3
:10A51000800048600020F8BDFF212531204600F072
:10A52000DFF80546FF210931204600F0D9F807463B
:10A53000FF214531204600F0D3F806463946314325
:10A540002943E9D02846304306D100F08DF90F4861
:10A55000C17C007D8142DFD8FF2145310020605061
:10A56000FF21253160500949002DC87401D0032016
:10A57000F8BD002E01D00F20F8BD497D0120002933
:10A5800001D02060C6E76060C4E700000428002016
:10A59000002000400023004010B5044C607D0028DE
:10A5A00003D100F0D7F90120607510BD0428002008
:10A5B000F8B5204C0026A27C002A01D01120F8BD5D
:10A5C000A174A060002020821B4DFF271D37E85199
:10A5D0000120A86000F002FB6168002911D024E08E
:10A5E000FF2701372946144800F07AF8002802D1E5
:10A5F000208AB842F6D1208AB84203D000F0EEFAA1
:10A6000000E03D46A07C218A8842E9D8218AC81F03
:10A61000F9380CD0084F2946384600F061F8002878
:10A62000F9D00120F8600020A0743046F8BD0F2654
:10A63000F9E70000042800200020004030B5520057
:10A640000A439900039C0A432102049D0A432904FA
:10A650000A43024980004018026030BD00070050E4
:10A6600030B552000A439900039C0A432102049D1D
:10A670000A4329040A43024980004018026030BDA1
:10A68000000700501CB500220B46009211460192B3
:10A69000FFF7E6FF1CBD1CB5002100910B4601220F
:10A6A00001911146FFF7DCFF1CBD00008200064847
:10A6B0001018026803231B049A430260026809040D
:10A6C0000A43026070470000000700500349401829
:10A6D0000068012800D000207047000000600040A2
:10A6E0004058002800D00120704703221202801831
:10A6F0004068084000D001207047704710B500281E
:10A700000BD0032808D10220FEF78AFF002803D0CF
:10A7100000221146FEF796F910BD00F070F910BD49
:10A7200070B50188194C0546102912D011291BD08B
:10A7300020464088132924D0522909D100231A46E3
:10A740001946A9DF002803D000221146FEF77AF946
:10A7500070BD0720FEF764FF002803D000221146D9
:10A76000FEF770F9A8880AE00020FEF759FF0028DC
:10A7700003D000221146FEF765F90020C043608037
:10A7800070BD00231A4685217FDFDBE70020002013
:10A7900010B50078002809D105483B21408876DFB4
:10A7A000002803D000221146FEF74CF910BD00002E
:10A7B000002000200021425C002A01D001207047C7
:10A7C000491C0629F7D300207047000004490818E7
:10A7D00020214156042901DB0120704700207047E9
:10A7E000BC2700200449081820214156042901D221
:10A7F0000120704700207047BC27002007490979D5
:10A80000490701D408207047002804D0044949783A
:10A810000160002070470E20704700006820002073
:10A82000E426002070B501240B49600408600B4940
:10A8300040108860094940398860094D6C602F20BC
:10A84000FDF748FCAC60074D00242F202C61FDF77C
:10A8500041FCEC7070BD000080E100E0401301405D
:10A8600000100140A0200020FF21074809310022EC
:10A870004250064881690648037DC268D154017D73
:10A88000491C017570470000002000400025004071
:10A890000428002070B500240546601C90B0000715
:10A8A000000F08A9103008940870601C0007000F02
:10A8B000103048708878F9263040801C88701C2140
:10A8C00001A8FDF762FC6946087910210843694632
:10A8D0000871029408A804940594079406902878B7
:10A8E00008A98871032069468884112000940870A3
:10A8F00048708878F7213040801C0840EF210840DC
:10A90000012630436946887014210AA8FDF73DFCF2
:10A9100009A80A9068460B9069460E8614204C865A
:10A9200088862B4668880C330AAA01A9A2DF10B0DA
:10A9300070BD00001FB5012269460A700872044804
:10A94000C16801910021C17406C8684690471FBDC7
:10A9500004280020FF220548253200218150FF22D3
:10A960000932815001210160704700000020004041
:10A97000FFB50746806A81B0144600283DD0002507
:10A9800038462030009033E00C20B96A68430E1836
:10A99000B088801CFE2802D90C2005B0F0BD2288AA
:10A9A0000299401C885420881622401C80B22080C6
:10A9B00002990A542088401C80B2208002994118D4
:10A9C000308800F0F7F92188401880B22080B288E2
:10A9D000002A0AD0B16800290FD0029BC018FDF7E9
:10A9E000BBFB2088B188401820806D1C0098EDB218
:10A9F000007BA842C8D80020CFE70720CDE710B5DC
:10AA00000020FEF70DFE002803D000221146FEF7BD
:10AA100019F8FEF751FD002803D000221146FEF779
:10AA200011F83CDF002803D000221146FEF70AF897
:10AA300010BD10B508461146C046C04610BD000006
:10AA4000002803D00249C860002070470E207047DC
:10AA5000C420002070B5002901D08C0701D0072048
:10AA600070BD064C0125A16062800549636010DF5E
:10AA70000028F5D1257016202EDF70BDC4200020DF
:10AA800033AA0100FEB51F4C00252769E06802903B
:10AA90006846FFF77FF80190FFF786F906460198B0
:10AAA000002822D000230098E16817E00E680A46CB
:10AAB000864202D9301A086012E0801BF318002683
:10AAC0001660D668D169B446002E07D0FE1836024B
:10AAD000360A566066469660D56115460029E5D16E
:10AAE0002846E160FFF7BEF906E02846FFF7BAF90D
:10AAF000002801D1002E02D00298FEF749FF002065
:10AB00002071FEBDA0200020012002490005086040
:10AB10007047000000E200E010B50E4BD968002934
:10AB200006D002680C68A24204D8A21A0A60C16169
:10AB3000D86010BD0B4604E00B46C969121B002902
:10AB400004D00C689442F7D3A41A0C600260C1616F
:10AB5000D86110BDA0200020F8B51E4DEC68002C77
:10AB600036D01D48002740682969401A0602360A77
:10AB70002068B0421AD8361AC7192246107CE469F8
:10AB8000002811D0002010746B69002B09D0916946
:10AB900050699847002807D000221146FDF752FF60
:10ABA00002E0516990698847002CE1D16978A87862
:10ABB000814206D1401CC0B2A870022801D10020F9
:10ABC000A87004490006800D18310F50FFF79CFF54
:10ABD000F8BD0000A020002000150140FF2107481B
:10ABE0001D31002242500648028A8168895C028A2F
:10ABF000521C02820348C1617047000000200040DF
:10AC0000042800200025004070B58EB005461C21A8
:10AC10006846FDF7BAFA694608780C210843694688
:10AC200008700024019403940494059406942878F1
:10AC300008A98870022069460884601C0007000F7C
:10AC400010300794087711204877887FF921084051
:10AC5000F721801C0840EF21084001263043694657
:10AC60008877142109A8FDF790FA08A8099007A889
:10AC70000A9069468E851420CC85088668882B1D2D
:10AC800009AAA2DF0EB070BD1FB500216A4611707F
:10AC90001072044882680192817406C86846904721
:10ACA0001FBD00000428002070B50178002909D0DC
:10ACB000012901D0022904D1002240681146FDF784
:10ACC000C1FE70BD104C0F4D20782818FDF7B8FF5D
:10ACD0002078401CC2B2A81822702038C07F0A28F1
:10ACE00001D0142AEDD307490848FEF755FB082880
:10ACF00005D0002803D000221146FDF7A3FE002056
:10AD0000207070BD2021002000200020FC240020A5
:10AD10007CB50178254D01290AD002292FD00029C0
:10AD20002CD129462248FDF79BFE00282ED031E089
:10AD3000406801781E481038FDF7AFFE1C4C103CEF
:10AD4000002805D001216A4611700190684608E08C
:10AD5000A068E168081A012805D10020694608703A
:10AD6000684669688847A068E168081AA18888422F
:10AD700004D80E480121801CFFF7B4FB7CBD0221E2
:10AD80006A461170C068019068460CE001210748CE
:10AD9000FFF70EFC06488168C0688842EED10320A8
:10ADA000694608706846696888477CBD6020002055
:10ADB000D42600200870000A487002207047000066
:10ADC00038B51549154A488890420FD04A78144C36
:10ADD000521CD2B24A70237B934208D3091D75DFFF
:10ADE000002803D0A169002900D0884738BD00257C
:10ADF0004D70217C002907D03B2176DF002803D04D
:10AE0000A169002900D0884761690029EED0684611
:10AE10000570884738BD00004C200020FFFF00006F
:10AE2000A826002012494868C005C00D19D0103866
:10AE300040B2002807DA0207120F083A920892007F
:10AE40005118C96904E081080A4A8900891809680B
:10AE50008007C00EC1400806800F012803D00328D8
:10AE600003D0022070470020704701207047000087
:10AE700000ED00E000E400E042788378521CD2B29A
:10AE8000934200D100220378934201D10020704701
:10AE90000A70416840781822504308187047FFB57F
:10AEA00083B016460C9D0D9C1F460222009501940E
:10AEB000039800F00CF8002807D13B4610223146D9
:10AEC00000950194039800F002F807B0F0BDFFB5BB
:10AED00083B0074600200C9C8646268805463AE04B
:10AEE0007868A90042181188684681805188C1801D
:10AEF0000022694601A865DF002839D1684601783B
:10AF00000598814226D17046002801D0002200E039
:10AF100002222088891842180D998A4227D8714642
:10AF200000290AD1401C80B22080069A049911544D
:10AF30002088401C208001208646218806980A1817
:10AF4000694601A865DF002812D169462088097882
:10AF5000401820806D1C3888A842C1DC704600284B
:10AF60000AD02088801B401E80B2FF2802D90C2006
:10AF700007B0F0BD069988550020F9E7017900294E
:10AF800002D1007B002800D0012070470B09080A7D
:10AF90000100000000509D001825002038250020E9
:10AFA00064250020110000001200000013000000C2
:10AFB0001400000011000300CD94010012000300F2
:10AFC000CD94010013000300CD9401001400030090
:10AFD000CD940100882600209ECADC240EE5A9E05D
:10AFE00093F3A3B50000406E090000000B000000C1
:10AFF0000A0000000800000000000000000000003F
:10B0000000509D0003000000090000000B0000003C
:10B010000A0000000800000000000000000000001E
:10B0200000509D00030000001C28002003000000C9
:10B0300050B0010000200020D8000000EE84010084
:10B0400028B10100D8200020680F0000FE84010014
:10B050000000FFFF010002000000000000000000EF
:10B0600000000000000000000000000000000000E0
:10B0700000000000000000000024F40000000000B8
:10B0800000000000FFFF00000000000000000000C2
:10B0900000000000000000000000000000000000B0
:10B0A00000000000000000000000000000000000A0
:10B0B0000000000000000000000000000000000090
:10B0C0000000000000000000000000000000000080
:10B0D0000000000000000000000000000000000070
:10B0E0000000000000000000000000000000000060
:10B0F0000000000000000000000000000000000050
:10B10000000000000000000000000000000000003F
:10B11000000000000000000000000000000000002F
:08B12000000000000000000027
:04000005000180C1B5
:00000001FF
